:10000000E8A00120194A0000C7200100054A0000AD
:10001000054A0000054A0000054A0000054A0000A4
:10002000000000000000000000000000C14B0000C4
:10003000054A0000000000001D4B0000054A0000BA
:10004000E94D0000E94D0000E94D0000E94D0000D8
:10005000E94D0000E94D0000E94D0000E94D0000C8
:10006000E94D0000E94D0000E94D0000E94D0000B8
:10007000E94D0000E94D0000E94D0000E94D0000A8
:1004800081F0004102E000BF83F0004330B54FEA45
:1004900041044FEA430594EA050F08BF90EA020FB2
:1004A0001FBF54EA000C55EA020C7FEA645C7FEA45
:1004B000655C00F0E2804FEA5454D4EB5555B8BF68
:1004C0006D420CDD2C4480EA020281EA030382EAD9
:1004D000000083EA010180EA020281EA0303362D6B
:1004E00088BF30BD11F0004F4FEA01314FF4801C3E
:1004F0004CEA113102D0404261EB410113F0004F50
:100500004FEA03334CEA133302D0524263EB430306
:1005100094EA050F00F0A780A4F10104D5F1200EA4
:100520000DDB02FA0EFC22FA05F2801841F10001FF
:1005300003FA0EF2801843FA05F359410EE0A5F1D3
:1005400020050EF1200E012A03FA0EFC28BF4CF004
:10055000020C43FA05F3C01851EBE37101F00045BA
:1005600007D54FF0000EDCF1000C7EEB00006EEBC7
:100570000101B1F5801F1BD3B1F5001F0CD3490851
:100580005FEA30004FEA3C0C04F101044FEA4452A8
:1005900012F5800F80F09A80BCF1004F08BF5FEA2F
:1005A000500C50F1000041EB045141EA050130BD0F
:1005B0005FEA4C0C404141EB0101013C28BFB1F521
:1005C000801FE9D291F0000F04BF01460020B1FA6C
:1005D00081F308BF2033A3F10B03B3F120020CDA3F
:1005E0000C3208DD02F1140CC2F10C0201FA0CF01D
:1005F00021FA02F10CE002F11402D8BFC2F1200C82
:1006000001FA02F120FA0CFCDCBF41EA0C01904037
:10061000E41AA2BF01EB0451294330BD6FEA040480
:100620001F3C1CDA0C340EDC04F11404C4F120026B
:1006300020FA04F001FA02F340EA030021FA04F37D
:1006400045EA030130BDC4F10C04C4F1200220FAD4
:1006500002F001FA04F340EA0300294630BD21FA12
:1006600004F0294630BD94F0000F83F4801306BFD8
:1006700081F480110134013D4EE77FEA645C18BFCC
:100680007FEA655C29D094EA050F08BF90EA020F63
:1006900005D054EA000C04BF1946104630BD91EA5B
:1006A000030F1EBF0021002030BD5FEA545C05D15E
:1006B0004000494128BF41F0004130BD14F580049D
:1006C0003CBF01F5801130BD01F0004545F0FE4111
:1006D00041F470014FF0000030BD7FEA645C1ABF46
:1006E000194610467FEA655C1CBF0B46024650EA7D
:1006F000013406BF52EA033591EA030F41F40021A9
:1007000030BD00BF90F0000F04BF0021704730B52E
:100710004FF4806404F132044FF000054FF0000103
:1007200050E700BF90F0000F04BF0021704730B5C4
:100730004FF4806404F1320410F0004548BF404299
:100740004FF000013EE700BF42004FEAE2014FEAEE
:1007500031014FEA02701FBF12F07F4393F07F4FC9
:1007600081F06051704732F07F4208BF704793F0CC
:100770007F4F04BF41F40021704730B54FF46074DF
:1007800001F0004521F000411CE700BF50EA0102E2
:1007900008BF704730B54FF000050AE050EA01028B
:1007A00008BF704730B511F0004502D5404261EBFB
:1007B00041014FF4806404F132045FEA915C3FF43C
:1007C000D8AE4FF003025FEADC0C18BF03325FEAD9
:1007D000DC0C18BF033202EBDC02C2F1200300FA8A
:1007E00003FC20FA02F001FA03FE40EA0E0021FAAF
:1007F00002F11444BDE600BF70B54FF0FF0C4CF49D
:10080000E06C1CEA11541DBF1CEA135594EA0C0F4E
:1008100095EA0C0F00F0DEF82C4481EA030621EA89
:100820004C5123EA4C5350EA013518BF52EA0335C4
:1008300041F4801143F4801338D0A0FB02CE4FF076
:100840000005E1FB02E506F00042E0FB03E54FF0A6
:100850000006E1FB03569CF0000F18BF4EF0010E9E
:10086000A4F1FF04B6F5007F64F5407404D25FEA9A
:100870004E0E6D4146EB060642EAC62141EA55514D
:100880004FEAC52040EA5E504FEACE2EB4F1FD0C8F
:1008900088BFBCF5E06F1ED8BEF1004F08BF5FEA0D
:1008A000500E50F1000041EB045170BD06F00046BF
:1008B00046EA010140EA020081EA0301B4EB5C046C
:1008C000C2BFD4EB0C0541EA045170BD41F4801164
:1008D0004FF0000E013C00F3AB8014F1360FDEBF89
:1008E000002001F0004170BDC4F10004203C35DA65
:1008F0000C341BDC04F11404C4F1200500FA05F3E8
:1009000020FA04F001FA05F240EA020001F0004288
:1009100021F0004110EBD37021FA04F642EB0601FE
:100920005EEA430E08BF20EAD37070BDC4F10C0428
:10093000C4F1200500FA04F320FA05F001FA04F2EC
:1009400040EA020001F0004110EBD37041F10001D8
:100950005EEA430E08BF20EAD37070BDC4F12005E3
:1009600000FA05F24EEA020E20FA04F301FA05F24B
:1009700043EA020321FA04F001F0004121FA04F2F3
:1009800020EA020000EBD3705EEA430E08BF20EAC3
:10099000D37070BD94F0000F0FD101F000464000FD
:1009A00041EB010111F4801F08BF013CF7D041EA7F
:1009B000060195F0000F18BF704703F00046520083
:1009C00043EB030313F4801F08BF013DF7D043EA54
:1009D0000603704794EA0C0F0CEA135518BF95EA0A
:1009E0000C0F0CD050EA410618BF52EA4306D1D191
:1009F00081EA030101F000414FF0000070BD50EAB0
:100A0000410606BF1046194652EA430619D094EA39
:100A10000C0F02D150EA013613D195EA0C0F05D123
:100A200052EA03361CBF104619460AD181EA030177
:100A300001F0004141F0FE4141F470014FF000002F
:100A400070BD41F0FE4141F4780170BD70B54FF0CA
:100A5000FF0C4CF4E06C1CEA11541DBF1CEA13554A
:100A600094EA0C0F95EA0C0F00F0A7F8A4EB05042C
:100A700081EA030E52EA03354FEA013100F0888023
:100A80004FEA03334FF0805545EA131343EA1263EC
:100A90004FEA022245EA111545EA10654FEA0026A1
:100AA0000EF000419D4208BF964244F1FD0404F55A
:100AB000407402D25B084FEA3202B61A65EB0305B6
:100AC0005B084FEA32024FF480104FF4002CB6EB73
:100AD000020E75EB030E22BFB61A754640EA0C00F3
:100AE0005B084FEA3202B6EB020E75EB030E22BF33
:100AF000B61A754640EA5C005B084FEA3202B6EB74
:100B0000020E75EB030E22BFB61A754640EA9C0032
:100B10005B084FEA3202B6EB020E75EB030E22BF02
:100B2000B61A754640EADC0055EA060E18D04FEAC0
:100B3000051545EA16754FEA06164FEAC30343EA60
:100B400052734FEAC2025FEA1C1CC0D111F4801F2D
:100B50000BD141EA00014FF000004FF0004CB6E726
:100B600011F4801F04BF01430020B4F1FD0C88BFC5
:100B7000BCF5E06F3FF6AFAEB5EB030C04BFB6EBD0
:100B8000020C5FEA500C50F1000041EB045170BDC3
:100B90000EF0004E4EEA113114EB5C04C2BFD4EBF0
:100BA0000C0541EA045170BD41F480114FF0000E74
:100BB000013C90E645EA060E8DE60CEA135594EAF0
:100BC0000C0F08BF95EA0C0F3FF43BAF94EA0C0FF3
:100BD0000AD150EA01347FF434AF95EA0C0F7FF468
:100BE00025AF104619462CE795EA0C0F06D152EABC
:100BF00003353FF4FDAE1046194622E750EA4106A0
:100C000018BF52EA43067FF4C5AE50EA41047FF4B0
:100C10000DAF52EA43057FF4EBAE12E74FF0FF3C15
:100C200006E000BF4FF0010C02E000BF4FF0010CE6
:100C30004DF804CD4FEA410C7FEA6C5C4FEA430C5F
:100C400018BF7FEA6C5C1BD001B050EA410C0CBFAE
:100C500052EA430C91EA030F02BF90EA020F002010
:100C6000704710F1000F91EA030F58BF994208BF77
:100C700090422CBFD8176FEAE37040F00100704734
:100C80004FEA410C7FEA6C5C02D150EA013C07D18B
:100C90004FEA430C7FEA6C5CD6D152EA033CD3D0D6
:100CA0005DF8040B704700BF8446104662468C46D0
:100CB0001946634600E000BF01B5FFF7B7FF002803
:100CC00048BF10F1000F01BD4DF808EDFFF7F4FF2C
:100CD0000CBF012000205DF808FB00BF4DF808EDB7
:100CE000FFF7EAFF34BF012000205DF808FB00BFDA
:100CF0004DF808EDFFF7E0FF94BF012000205DF8FC
:100D000008FB00BF4DF808EDFFF7CEFF94BF0120B0
:100D100000205DF808FB00BF4DF808EDFFF7C4FFA9
:100D200034BF012000205DF808FB00BF4FEA4102FC
:100D300012F5001215D211D56FF47873B3EB62522D
:100D400012D94FEAC12343F0004343EA505311F054
:100D5000004F23FA02F018BF404270474FF00000E6
:100D6000704750EA013005D111F0004008BF6FF024
:100D7000004070474FF00000704700BF4FEA41024B
:100D8000B2F1E04324BFB3F5001CDCF1FE5C0DD9E9
:100D900001F0004C4FEAC0024CEA5070B2F1004F33
:100DA00040EB830008BF20F00100704711F0804F36
:100DB00021D113F13872BCBF01F00040704741F4FB
:100DC00080114FEA5252C2F11802C2F1200C10FAFF
:100DD0000CF320FA02F018BF40F001004FEAC123E3
:100DE0004FEAD32303FA0CFC40EA0C0023FA02F387
:100DF0004FEA4303CCE77FEA625307D150EA01335D
:100E00001EBF4FF0FE4040F44000704701F000402C
:100E100040F0FE4040F40000704700BF7BB972B95B
:100E20000029BEBF00204FF0004106E008BF0028A7
:100E30001CBF6FF000414FF0FF3000F0EBBDADF193
:100E4000080C6DE904CE002909DB002B1ADB00F049
:100E500042FEDDF804E0DDE9022304B070474042C1
:100E600061EB4101002B1BDB00F035FEDDF804E0F7
:100E7000DDE9022304B0404261EB4101524263EBE1
:100E800043037047524263EB430300F024FEDDF856
:100E900004E0DDE9022304B0404261EB4101704708
:100EA000524263EB430300F016FEDDF804E0DDE997
:100EB000022304B0524263EB4303704753B94AB96B
:100EC000002908BF00281CBF4FF0FF314FF0FF3052
:100ED00000F0A0BDADF1080C6DE904CE00F0FBFD03
:100EE000DDF804E0DDE9022304B07047D0B5FFF778
:100EF0002BFC00220B4B06460F46FFF77DFC00F053
:100F00008BFD0446FFF7FEFB0022074BFFF774FC46
:100F100002460B4630463946FFF7B6FA00F07CFD34
:100F20002146D0BD0000F03D0000F041D0B50022C8
:100F30000B4B06460F46FFF75FFC00F06DFD0446C5
:100F4000FFF7E0FB0022074BFFF756FC02460B467B
:100F500030463946FFF798FA00F05EFD2146D0BDD5
:100F60000000F03D0000F04103685A004CBF43F020
:100F7000004323F00043184470472DE9F04706462C
:100F8000174641B301394FF00009884609EB0804C0
:100F900004EBD474641006EBC4054FEAC40A284677
:100FA000FFF7E2FFA14204D1B84204D82846BDE8C9
:100FB000F087B84204D9A1450DD004F1FF38E5E728
:100FC0000AF108003044FFF7CFFF0138B842EDD2F4
:100FD00004F10109DAE70025E8E7012806D0022834
:100FE00006D00028034818BF002070470248704709
:100FF00002487047F5150000F9150000FD150000C6
:101000001F4B37B504468D1E4BB101A92846AFF3DF
:10101000008048B900230920236103B030BD19487E
:10102000194B1B1ADB10019301992A46FFF7A5FF04
:1010300001460028EED0FFF797FF4B68A064012B14
:101040001AD0002B01F1040010DBFFF78DFF002305
:10105000C4E913030368002B0ADAC3F30360FFF744
:10106000BCFF03460028D5D00020D5E70123EFE7D9
:10107000FFF77AFF0346F7E700230520CCE700BF20
:101080000000000058730100E87401000368DA07EB
:1010900010B5044605D49B0700F1480018D500F0B0
:1010A000F7FB2368590703D404F1D00000F0F8FBE4
:1010B00023681A0703D404F5A87000F0F9FB23682D
:1010C000DB0608D404F5E870BDE8104000F034BC3D
:1010D00000F0D6FBE5E710BD092070470346006825
:1010E00000B118447047704770B505460C46216C36
:1010F0002846FFF785FF064608B104F0C5F8236CC3
:101100002246294601206B612B6998470828EED0BA
:101110000728F2D13046216CFFF7E5FF201D00F0D3
:10112000A3FB2DE9F0470C1DADF5727DD0F80C90B6
:101130000746D0F818A0164603AD0DF108080FCCED
:101140000FC50FCC0FC50FCC0FC594E80F0085E875
:101150000F000025C8F800500936D8F8401038466E
:10116000FFF74EFF0446F6B268BBD8F840304FF4A4
:10117000F07241467AA87B6115F081FE3B697AAA3C
:10118000394630469847889B0546C8F844303A4669
:101190003B4631460120CDE9008AC847C0B9C4B9F1
:1011A0004FF4F0727AA94046264615F068FE082DE5
:1011B000D2D0072D0CD12046D8F84010FFF793FF6E
:1011C00003A800F051FB46F01006D8F83830DCE7F1
:1011D000092420460DF5727DBDE8F087406C70470C
:1011E000F0B5CB6BF9B00D1D06460B640F4601AC94
:1011F0000FCD0FC40FCD0FC40FCD0FC495E80F0056
:1012000084E80F004FF0FF33009310993046FFF74A
:10121000F7FE78B933696A4631469847082804468C
:10122000F3D06846FFF732FF062C03D1394630462B
:10123000FFF75AFF092079B0F0BD10B48261DA6B74
:10124000C16019461A64002210BC6AE770B5436990
:101250000446C6680D460B6426B10122FFF761FF04
:1012600004F012F803690A4601460220984707284D
:1012700005D00828F4D129462046FFF735FF30462F
:10128000296CFFF730FF281D00F0EEFAC26802B9A2
:10129000A6E7CA6B0A64002243E7704783680146E9
:1012A0000BB1012018477047012910B504460846C4
:1012B00005D005D9C81E01288CBF0220012010BD11
:1012C00043B90F2A06D804EB8204029A18466168D3
:1012D0001160F4E70220F2E71FB503AB0A46009362
:1012E00000231946FFF7E0FF039805B05DF804FB03
:1012F000012910B50446084605D005D9C81E0128A5
:101300008CBF0220012010BD43B90F2A06D80299D4
:1013100004EB8204184609686160F4E70220F2E7F2
:101320001FB503AB03920A46009300231946FFF74B
:10133000DFFF05B05DF804FBF0B5D36BADF50F7DB5
:10134000141D064613640F4617AD0FCC0FC50FCC06
:101350000FC50FCC0FC594E80F0085E80F004FF0C4
:10136000FF33169326996846FFF74AFE90B90C2181
:1013700016A86A46FFF7D4FF394616A8B04748B901
:10138000049B16AA6946082098470528044602D0FF
:101390000928E7D1092416A8FFF778FE20460DF5A5
:1013A0000F7DF0BD2DE9F04FCD6C87B017460C4690
:1013B00055F8042B00F003099A4604953BBB120232
:1013C0008DF8153003230392B9F1020F8DF8143014
:1013D000236D08BFA56B13F0010322D100F00808AC
:1013E00000932B6843BB03A9384600F0E7FC0028B4
:1013F00040F0FB80009BDBB10F213846FFF76CFF0C
:101400000E2102463846FFF78BFF794A55E0130C50
:1014100012048DF81530DBB2039205EB830502232D
:10142000D2E703A9384600F0C9FC002840F0DD806F
:10143000082007B0BDE8F08FBAF1020FA26C4FF0A0
:101440000F01384607BFD5F804B005F10806B5F816
:1014500002B02E1D18BF2B882BF0010501931544F7
:10146000FFF73AFF019B854229D823F001022A4465
:10147000824294BF002201224FEA4B0003F0010395
:1014800000F0020040EA0305012D1AD0022D5ED0C3
:10149000002D40F0AA80351DB9F1000FA1D0002A1F
:1014A0009FD03046FFF760FDA5630646204615F045
:1014B000B4FA002800F0998032460F213FE0002264
:1014C000DAE7B9F1000F26D1002A3DD073683268FF
:1014D000991C4FEAD27200F0888004F15801013360
:1014E000029109D0301DFFF7F9FD02AB01462046FD
:1014F0000DF0F4FF054638B30D213846FFF7ECFE3A
:10150000022D029B206202D1E36204F12C0306202B
:10151000C4E909368DE7256A0D213846FFF7DCFE60
:10152000854211D1A36A9E420ED13046FFF71CFDC1
:101530000F2102463846FFF7F3FE224600213846C7
:10154000FFF7EEFE072074E706F1080549E7356866
:1015500025F00045B9F1000F2AD1A2B1B8F1000F72
:1015600019D085B9CB4617E00BF1010B019B002286
:1015700006EB8B000293FFF7B1FD02AB014620465C
:101580000DF0ACFF58B13368002B00DA043601359A
:1015900006EB850525E7C34604F158030193AB45E7
:1015A000E2D10D213846FFF797FE029B2062AEE79D
:1015B000D4F820B00D213846FFF78EFE8345E2D1E6
:1015C000A36A9E42DFD14FF0000B0423A562C4E959
:1015D0000BB3F318636333685B4503DA681C06EBEF
:1015E0008000A3E701230093D1E7092021E700BF92
:1015F0005DF900000023D5E60123D3E60223D1E6FE
:101600002DE9F0410546C2B014461E46042925D8EE
:10161000DFE811F005001C002400D6000301EEB93C
:10162000836B92B20121043001FA06F717421CBF06
:1016300053F8047B40F826700136102EF4D1A6042E
:1016400000D4AB63002042B0BDE8F081012E4FEA28
:10165000124794B204D13B19102B41D90220F2E772
:10166000052EFBD107EB0408B8F1200FF6D80F2F99
:101670004DD9002CE6D00368A046580708D523F0C2
:101680000403284640F8D03B00F00EF90F2F48D94C
:10169000684600F009F9AB6B102F3A4642A94FEAB1
:1016A000480838BF10221C4608F1FF3801EBC2027F
:1016B0004FEA8801A2F5C472101F02EB880254F8A9
:1016C00004CB40F804CF8242F9D10A1D012E134405
:1016D00017D00F2FAB636FD9684600F0E1F8B1E780
:1016E000102FBBD00368DA0705D523F0030340F8B9
:1016F000483B00F0C9F820A800F0C6F8AB6B002CFE
:101700003FD1043320A8AB6300F0BAF89AE7B8F1F0
:10171000100F03682DD9DC07A8F1100842D4580730
:10172000ADD420A8C7F1100400F0B6F8684600F068
:10173000BBF820AA6400AB6B02EBC702013C101F90
:10174000A10002EB84021C4654F804CB40F804CFFD
:101750009042F9D10A1D1344B8F1000F9CD1012E1B
:10176000CFD00F2FAB633FF66DAF20A800F090F8FD
:1017700068E7D9070DD420A800F08EF8AB6B002CD9
:10178000F3D0640020AA4FF0000802EBC702013C2E
:10179000D5E723F0010343F0020340F8483B00F093
:1017A0007BF8E8E723F0010343F0020340F8483BED
:1017B00000F072F82B68B2E720A800F069F88BE718
:1017C000032E7FF44BAF97B2160C07EB1244102C8C
:1017D0003FF644AF0368190706D523F008030360FA
:1017E00000F5A87000F086F820A800F083F820AB80
:1017F000AA6BF90003EBC60303EBC707D41ABB427D
:1018000003EB040005D10A4420A8AA6300F050F8B5
:1018100018E7006843F8040BF1E7002E7FF41EAFD1
:10182000102A3FF61BAF0368DA0606D523F0100333
:10183000036000F5E87000F089F820AE304600F053
:1018400085F8AB6B0022012101FA02F020421CBF97
:1018500053F8040B46F822000132042AF4D1304632
:10186000AB6300F069F8EDE600F1340191E838006F
:101870009C46A6464CF8045D90E8FF0FE54600BD87
:1018800090EC210B704700BF80EC210B704700BF2C
:1018900090EC200B704700BF80EC200B704700BF1E
:1018A000D0EC200B704700BFC0EC200B704700BF8E
:1018B000F0EC0201F0EC0211F0EC0221F0EC02314C
:1018C000F0EC0241F0EC0251F0EC0261F0EC02713C
:1018D000F0EC0281F0EC0291F0EC02A1F0EC02B12C
:1018E000F0EC02C1F0EC02D1F0EC02E1F0EC02F11C
:1018F000704700BFE0EC0201E0EC0211E0EC0221D5
:10190000E0EC0231E0EC0241E0EC0251E0EC02617B
:10191000E0EC0271E0EC0281E0EC0291E0EC02A16B
:10192000E0EC02B1E0EC02C1E0EC02D1E0EC02E15B
:10193000E0EC02F1704700BFB0FC0181B0FC019106
:10194000B0FC01A1B0FC01B1704700BFA0FC018157
:10195000A0FC0191A0FC01A1A0FC01B1704700BF57
:10196000EC4600B52DE900502DE9FF1F4FF00003B4
:101970002DE90C0001A9FFF733FCDDF840E012B0BF
:10198000704700BFEC4600B52DE900502DE9FF1F60
:101990004FF000032DE90C0001A9FFF757FCDDF81B
:1019A00040E012B0704700BFEC4600B52DE9005092
:1019B0002DE9FF1F4FF000032DE90C0001A9FFF7EF
:1019C00065FCDDF840E012B0704700BFEC4600B5A2
:1019D0002DE900502DE9FF1F4FF000032DE90C0009
:1019E00001ABFFF72AFCDDF840E012B0704700BF02
:1019F000EC4600B52DE900502DE9FF1F4FF0000324
:101A00002DE90C0001AAFFF797FCDDF840E012B0C9
:101A1000704700BF704700BF4A0011D212F5001294
:101A200011D20DD56FF47873B3EB62520ED44FEA36
:101A3000C12343F0004343EA505323FA02F07047B6
:101A40004FF00000704750EA013002D14FF0FF30F4
:101A500070474FF00000704710F8012B11F8013B60
:101A6000012A28BF9A42F7D0D01A7047034613F8CC
:101A7000012B002AFBD1181A0138704707EE900A93
:101A8000F5EEC07A08B5F1EE10FA03D4BDE80840CF
:101A9000FFF72CBAF1EE677A17EE900AFFF726FAF5
:101AA000404261EB410108BD38B5002200230446E5
:101AB0000D46FFF713F928B920462946BDE83840FE
:101AC000FFF734BA204605F10041FFF72FFA4042F4
:101AD00061EB410138BD2DE9F04786468C4608464A
:101AE000089E154674461946002B40F0C180854279
:101AF000B2FA82F245D94AB1C2F1200300FA02FCDF
:101B0000954094402EFA03F343EA0C0C4FEA154E2D
:101B1000A8B2230CBCFBFEF80EFB18CC08FB00F9A6
:101B200043EA0C43994528D9EB1808F1FF3704D252
:101B3000994502D9A8F102072B44A3EB0903A4B2EB
:101B4000B3FBFEFC0EFB1C330CFB00F044EA034429
:101B5000A04214D92C190CF1FF3304D2A04202D9AF
:101B6000ACF102032C44241A43EA07401EB1D440CE
:101B7000002334607360BDE8F0874746DDE76346C5
:101B8000F1E792BB431B01214FEA154EAFB2200C87
:101B9000B3FBFEFC0EFB1C330CFB07F840EA0343CF
:101BA000984561D9EB180CF1FF3004D2984502D961
:101BB000ACF102002B44A3EB0803A4B2B3FBFEFC80
:101BC0000EFB1C330CFB07F744EA0344A7424DD934
:101BD0002C190CF1FF3304D2A74202D9ACF1020355
:101BE0002C44E41B43EA0040C0E7C2F120039540C7
:101BF000944020FA03F12EFA03F34FEA154E904079
:101C0000AFB20343B1FBFEFC0EFB1C10190C0CFB26
:101C100007F841EA0041884522D969180CF1FF30E4
:101C200004D2884502D9ACF102002944A1EB080195
:101C30009BB2B1FBFEFC0EFB1C110CFB07F743EA49
:101C400001439F420ED9EB180CF1FF3104D29F42A1
:101C500002D9ACF102012B44DB1B41EA004193E7BE
:101C60006046E3E76146F7E76046A4E76346B8E706
:101C7000834206D916B9002108467CE7C6E900E090
:101C8000F9E7B3FA83F78FB9834201D3724508D8D5
:101C9000BEEB020460EB030301209C461EB9002149
:101CA00069E73846FAE7C6E9004CF8E7C7F1200CC7
:101CB000BB400EFA07F522FA0CF42EFA0CF1BA40EA
:101CC0001C4320FA0CF3B8404FEA144901431FFAB1
:101CD00084FEB3FBF9F809FB18300B0C08FB0EFA75
:101CE00043EA00439A4540D9E31808F1FF3004D293
:101CF0009A4502D9A8F102002344A3EB0A0389B252
:101D0000B3FBF9F809FB183308FB0EFE41EA034167
:101D10008E452CD9611808F1FF3304D28E4502D9C3
:101D2000A8F10203214443EA0040A1EB0E01A0FB0D
:101D300002984145CE46434602D306D14D4504D2D2
:101D40000138B9EB020E68EB0403002EA7D0B5EB07
:101D50000E0261EB030101FA0CFC22FA07F3F940D1
:101D60004CEA0303C6E9003199E74046C5E743461C
:101D7000D9E7027A03467AB9427A82B1013A4272CD
:101D80004268111D12680260032241601A721A68CB
:101D9000100E12021A607047013AD2B2F6E7B02074
:101DA00070471FB503AB0C22009300231946FFF7C1
:101DB0007BFA039805B05DF804FBF2E72DE9F043E8
:101DC000054685B00E464FF000083046FFF7D1FFBC
:101DD000B028044615D1B8F1000F0ED103AC43462C
:101DE0000E22414628460094FFF75EFA43460F2232
:101DF000414628460094FFF77BFA002005B0BDE875
:101E0000F08302061DD44FEA8009002303AF0D22A0
:101E10005FFA89F9194628460097FFF745FA09F154
:101E20000409039B14F0400F14BFA3EB09034B44B8
:101E30000393002300970D2219462846FFF758FA0E
:101E4000C3E700F0F003802B18D104023046FFF7FF
:101E500090FF0443B4F5004F01D10920CEE72401DF
:101E600000232846A2B21946FFF7CAFB0028F4D186
:101E700014F4004F18BF4FF00108A6E7902B0DD1C6
:101E800000F00D030D2BE8D003AF002300F00F028C
:101E9000284619460097FFF707FACAE7A02B13D187
:101EA000C3434FF47F6203F007031A41030702F4B0
:101EB0007F6201D542F48042002319462846FFF78D
:101EC0009FFB002881D0C8E7B02B46D1B12808D1AC
:101ED0003046FFF74EFF431E0246DBB20E2BEBD916
:101EE000BBE7B22820D1002303AC0D2228461946B7
:101EF00000940227FFF7D8F93046FFF73AFF00F0C9
:101F00007F0110F08003039A01FA07F105D102F571
:101F1000017200940A4403928DE70A443046073761
:101F20000392FFF726FFEAE7B3280BD13046FFF70D
:101F300020FF0123020300F00F0002F470220130A1
:101F40000243BAE700F0FC03B42B86D000F007028E
:101F50000123013242F40022AFE7C02B44D1C6284E
:101F60000AD13046FFF705FF0323020300F00F00FC
:101F700002F470220130E3E7C7280BD13046FFF7A7
:101F8000F8FE431E0246DBB20E2B3FF666AF00237F
:101F9000042193E700F0F803C02B06D100F00F02F4
:101FA0000323013242F4202287E7C8280DD13046AE
:101FB000FFF7DFFE00F0F00200F00F000523103203
:101FC000013040EA0232012178E7C9287FF445AFA9
:101FD0003046FFF7CEFE0523020300F00F0002F4A7
:101FE000702201300243EEE700F0F803D02B7FF4BB
:101FF00034AF00F007020523013242F40022E2E789
:102000001FB503460846DA6C53680832190202927B
:102010001B0E0322019101A98DF80C208DF80D30C3
:10202000FFF7CCFE05B05DF804FB08B5FFF7C5FE71
:10203000806C08BD08B5FFF7C0FEC06CC3790233E1
:1020400000EB830008BD00002DE9F04F93B0019034
:10205000834C4021A5682046EB689847002804DAA5
:10206000804811F0E0FA0020F1E0032120462B69BE
:1020700006AA984707212B690CAA20469847099879
:10208000FEF750FB74A3D3E90023FEF7DFFC044600
:1020900008980D46FEF746FB02460B4620462946A9
:1020A000FEF7F4F9FEF76AFE81460B98FEF73AFB5D
:1020B00069A3D3E90023FEF7C9FC04460A980D463C
:1020C000FEF730FB02460B4620462946FEF7DEF9B6
:1020D000FEF754FE80460D98FEF724FB5EA3D3E97D
:1020E0000023FEF7B3FC04460C980D46FEF71AFBDE
:1020F00002460B4620462946FEF7C8F9FEF73EFE8B
:1021000007460F98FEF70EFB53A3D3E90023FEF713
:102110009DFC04460E980D46FEF704FB02460B4656
:1021200020462946FEF7B2F9FEF728FE02901198E4
:10213000FEF7F8FA48A3D3E90023FEF787FC04462C
:1021400010980D46FEF7EEFA02460B462046294649
:10215000FEF79CF9FEF712FE03900798FEF7E2FAED
:102160003DA3D3E90023FEF771FCCDE904010698F5
:10217000FEF7D8FA02460B46DDE90401FEF786F9C0
:10218000FEF7FCFDDDED027A374EDFF8F4A034688F
:1021900036490AEB840BCBF800003548A5004319FB
:1021A000344AC3F800904B19C3F8008053191F60DC
:1021B000314FDFF8D0C07B19C3ED007A4FF496732E
:1021C000DDED037A65440134C5ED007A94FBF3F547
:1021D00003FB1544294B34601D7825B1272C7FF76C
:1021E00042AF00241C7000254FF4967E019C33689A
:1021F00018342B4403F5827393FBFEF80EFB18335F
:102200000AEB8308D8F80080013544F8188C00EBFD
:102210008308D8F80080282D44F8148C01EB83083B
:10222000D8F8008044F8108C02EB8308D8F80080BE
:1022300044F80C8C07EB8308D8F800800CEB830380
:1022400044F8088C1B6844F8043CD0D1012013B03A
:10225000BDE8F08FAFF300800000000080842E41C5
:1022600048760100F3D90100E8290020D81B00209E
:1022700088200020281700207812002074020020F7
:1022800038250020C80D00202DE9F84F4FF00043FD
:102290002DED028B23FA00F057EC106B59EC118BEB
:1022A00093468A46FEF73EFA424604460D464B46A2
:1022B00030463946FEF7A0FA02460B46204629462C
:1022C000FEF79AFA02460B4643EC182B0AA3D3E911
:1022D0000023FEF721FD08B19FED078B59465046BC
:1022E000B0EE480AF0EE680ABDEC028BBDE8F84F8C
:1022F00005F084BAAFF300800000C0FFFFFFDF41AC
:102300002DE9F74F0446DDE90C7BC86816469A466E
:102310000D46FEF719FA8046F0688946FEF714FA72
:1023200002460B4640464946FEF766FA8046894615
:10233000BAF1000F1BD0DAF80C00FEF705FA0246DE
:102340000B4640464946FEF79FF88046F86821F064
:102350000049FEF7F9F902460B4640464946FEF7AA
:1023600075FB12A3D3E90023FEF7C2FC50B13B4634
:10237000324629462046CDF830B003B0BDE8F04FD4
:1023800005F0BEBA064B20460093656940F2431340
:10239000044A0549A847012003B0BDE8F08F00BFFB
:1023A00094F90100E9F801003EF901007B14AE4701
:1023B000E17A943F000000002DE9F0432DED028BFF
:1023C00099460B7889B0072B04460F461546129E96
:1023D0001AD140F20241836B984740B9AC4B00934D
:1023E000272365692046AB4AAB49A84799E0B0620C
:1023F00040F202412046A36B984720B9A74B0093B7
:1024000065692B23EEE7F0622A783B78072A08D12A
:10241000092B3DD0072B13D0A14B009365693123C5
:10242000E0E79A4234D0CDE902329E4B01939E4BB5
:102430000093342365692046964A9C49A84770E07A
:10244000D5F81080B8F1000F09D00023CDE9028340
:10245000974B0193974B009365693923EBE741460E
:10246000DFED950A47F6FF709FED940AB36A944A30
:1024700009F070F9F36A4146DFED8F0A9FED910A8A
:10248000914A924809F066F92B69F361EB6833626F
:1024900097F80080B8F1090F45D0B8F1070F40F068
:1024A00037813B694BB10022CDE90232804B019369
:1024B000874B009365695B23BDE72A6942B1CDE98B
:1024C00002237B4B01937B4B009365695C23B2E74E
:1024D000DFED807A95ED037AB4EEE77AF1EE10FA4B
:1024E000DFED7D6ACCBF77EE677A77EEC77AF4EEE0
:1024F000E67AF1EE10FA7EDD4FF07C53002217EE03
:10250000100ACDE90423FEF71FF9744BCDE902014F
:102510000193734B00935D23656920465D4A7149C1
:10252000A847012086E02878072832D12B6913F5C7
:10253000004F09D0654ACDE902326B4B01935D4BE8
:1025400000936569622376E7DFED687A95ED037A9B
:10255000B4EEE77AF1EE10FADFED656ACCBF77EE04
:10256000677A77EEC77AF4EEE67AF1EE10FA66DD76
:102570000022604B17EE100ACDE90423FEF7E4F8C1
:102580005D4BCDE902010193554B009365696323CF
:10259000C3E7092812D0666903F054FE0546404699
:1025A00003F050FE554BCDE9025001933D4B009393
:1025B00066232046374A5249B047B2E72B6913F1E8
:1025C000800F0AD06FF07F02CDE902324D4B0193AC
:1025D000384B0093656967232DE795ED037ADFEDAE
:1025E0004A7AB4EE677AF1EE10FA28D0474B00939E
:1025F00065696823F6E6F868FEF7A6F80446D9F898
:1026000000000D46FEF7A0F802460B46204629467C
:10261000FEF7F2F81CA3D3E90023FEF717FA06F140
:10262000080841EC100B404607A905F09FF8079BEE
:10263000F360002009B0BDEC028BBDE8F083F868C0
:10264000FEF782F841EC180BD9F80000FEF77CF891
:1026500006F1080441EC100BB0EE481AF0EE681ACF
:102660002146052007AAFFF70FFE07991F22F160F8
:10267000052011F022FAFEF755F801F10041FEF7AE
:1026800055FBB061D5E700BF140014001400243FCF
:10269000880902002A0902003EF901009F09020090
:1026A00052FA010092FD01009FFD0100BCF90100FA
:1026B00092F90100C209020080000038A000203910
:1026C000E354010080008037D55401000080FFFFF3
:1026D000DC090200000000386F120333150A020003
:1026E000210A0200F5090200360A020000008037C4
:1026F0006F1283320000F03E3D0A0200490A0200D8
:102700004E030200550A02000000803B5A0A0200F4
:10271000B8F1010F0FD04046666903F093FD0546FE
:10272000012003F08FFD104BCDE9025001930F4BB8
:10273000009385233DE7287801280ED0666903F0D1
:1027400081FD0546404603F07DFD074BCDE9025073
:102750000193074B009386232BE7D9F80000FDF780
:10276000F3FFC6E9000164E77C0A02009FFD010057
:1027700092FD01000000000007EE901AF8EEE77AE3
:1027800067EE807A70B5064617EE900AFFF776F985
:102790000DA3D3E900230A4D80FB054520462946B9
:1027A000FEF73CFB0023074A306029462046FEF72F
:1027B00035FB0023034AFEF731FB726070BD00BF9A
:1027C0003AA3950040420F000010A5D4E800000095
:1027D00007EE901AF8EEE77AB2EE047A67EE807AA6
:1027E000C7EE877A70B5064617EE900AFFF746F9EE
:1027F0000FA3D3E900230C4D80FB05452046294655
:10280000FEF70CFB06A3D3E90023306029462046DF
:10281000FEF704FB0023054AFEF700FB726070BD63
:1028200080A8120100000000D8EF2F0040420F00E6
:1028300000209BF35E10000070B50446C1B3072969
:102840004BD153681068284AD917C0FB0231012BBD
:1028500071F100023EDB2548181841F1000120A368
:10286000D3E90023FEF7DAFA022826691AD01028E5
:102870001AD004281AD008282CD10325294620462E
:1028800013F0B6F900281FDB3D22194B33F8153041
:10289000A3FB023207EE903AF8EEE77AC6ED037A30
:1028A000002070BD0025E9E70125E7E70225E5E7FF
:1028B0001288104B33F8020B824208D12046C9B26D
:1028C0000AF0E8F90028EBDA6FF00400E9E70131DB
:1028D0000C29EFD16FF01500E3E76FF08500E0E71A
:1028E0003AA395000000000040420F009DD14A002D
:1028F0006ED9010076D9010070B50D46032D114641
:1029000004461A4609D0072D0BD002213A4A3B480B
:102910000FF004FB6FF0850037E0BDE87040FFF773
:102920008BBF002951D00729F4D159681D680A4688
:10293000334BC817C5FB0320B425A2FB0531012A80
:1029400005FB001170F1000020DB2E48181841F142
:10295000000127A3D3E90023FEF760FAFA281DD06F
:10296000B0F5FA7F1CD0B0F57A7F1BD0B0F5FA6FC6
:102970001AD07D2839D1042529462046266913F02E
:1029800047F9002812DA6FF0040070BD1E481818CD
:1029900061F1000116A3D3E90023DDE70025EBE791
:1029A0000125E9E70225E7E70325E5E741F21712EC
:1029B000164B33F81530A3FB023207EE903AF8EECF
:1029C000E77AC6ED077A0020DFE71A88104B33F864
:1029D000020B824206D12046C9B20AF03DF9002816
:1029E000F1DAD0E701310C29F1D16FF01500CCE715
:1029F000D8EF2F0000000000D30A0200847F0100FE
:102A000040420F00ECF717001408E8FF64D90100FA
:102A100076D901009FED2C7A30B52C4C2C4B2268D6
:102A2000056803EB82010D604568F0EE475A4D6181
:102A30008568B1EE046A8D62511CC068052903EBFC
:102A40008202A8BF0021D06300204FF0FF32216036
:102A5000D3ED007AD3ED016A77EEA57A77EEA67A08
:102A6000D3ED026A77EEA67AD3ED036A77EEA67A03
:102A7000D3ED046A77EEA67A511CC7EE866A04D0BD
:102A8000F4EEC76AF1EE10FA02DDB0EE667A0246A5
:102A90000130042803F11403DAD10E4B1968002920
:102AA000C4BF01F1FF311960042A0BD0DFED0A7AAF
:102AB000B4EEE77AF1EE10FA05D41968002902DCC9
:102AC00019211960104630BD00000000740D00206F
:102AD000780D0020700D00209A99193F2DE9F041E2
:102AE0003423002484B000AFC7E90234214D2846C6
:102AF00013F00BFA29680346B8B96C4688B06A46E9
:102B00001D48C2E905014FF4007191831B497960AA
:102B100042F8101F4FF4E251194801F093F9A5460D
:102B200003201037BD46BDE8F081164810F07BFD4C
:102B3000AE68D6F80080B8F1000F05D1124A012125
:102B40000F480FF0EBF9EBE722460321284607F187
:102B50000803C0470028F1DB36680EB90B4AEEE7E0
:102B600022460721284607F10803B0470028F5DB75
:102B70002046D6E7487601008ED901000300000107
:102B8000C47F0100A5D90100BDD90100DAD9010037
:102B900020292DE9F04105460F461446984607D1F5
:102BA0001F4810F040FDBDE8F0411E4810F03BBD4D
:102BB00003681B68984740B11B4810F034FD394644
:102BC0001A48BDE8F04110F02EBDD5F8E4C0BCF1C4
:102BD000070F06D93946164810F025FD082115487B
:102BE000EFE74FF01C0E0FCC0EFB0C5E0EF104064F
:102BF0000FC694E8070086E80700CEF81870D5F8ED
:102C000028310CF10102C5F8E42005EB8302013301
:102C1000C2F8E870C2F80881C5F82831BDE8F08133
:102C20000DDA01003EDA010053DA010082DA010018
:102C3000A3DA0100D4DA0100F0B55F4B5F4E1968EA
:102C40008DB0CA185B583260D31A198804290BD981
:102C5000998811B15158032908D0032258480DB062
:102C6000BDE8F04010F0DFBC0021F6E7554FD7E893
:102C7000AF4F14F00104544D11D138460CF070FBE5
:102C800068B1524B2846524A52492B60C5F8E4407D
:102C9000C5F828410FF01EFA384613F07DFD05A84F
:102CA00005F0DCFA05AA03214B4B4748FFF770FFFC
:102CB00005A806F0EBF905AA0421484B4248FFF7A6
:102CC00067FF05A806F0CEFE05AA0921444B3E4841
:102CD000FFF75EFF05A807F001FC05AA1121414B93
:102CE0003948FFF755FF05A808F000FC05AA19218F
:102CF0003D4B3548FFF74CFF05A806F0D1FD05AA6E
:102D000046213A4B3048FFF743FF05A808F058F931
:102D100005AA1621364B2C48FFF73AFF05A807F005
:102D200079FC2821334B284805AAFFF731FF324DA3
:102D3000D5E8AF4F14F0010417D128460CF010FB72
:102D400098B14FF4A033CDE90244009301942B4B8A
:102D50001D4A31682A480FF0C2FF1D4A29492848F8
:102D60000FF0B8F9284613F017FD2548264C2060CF
:102D700003F02CFD014628B124480DB0BDE8F04019
:102D800010F051BC206803F0EBFB214B1860836806
:102D90009968282902D1DA68062A02D0DA681D4823
:102DA0005DE783691C4A9B081360FFF797FE08B133
:102DB0001A48E2E70DB0F0BDA8800100F02B00201A
:102DC000E7DA0100B42A0020B82A0020A0CF0100D1
:102DD000F42B002003100100E17D0000CD7E0000F7
:102DE000957F00007D80000039810000233C0100B8
:102DF000BD8100006D7D0000EC29002080340020A2
:102E0000F0290020752D0100EC2B00202EDB0100A5
:102E1000E82B002066DB0100E42B00208EDB0100A4
:102E200010B5104B104A1B6811685868FFF70CF971
:102E3000B0B10E4C206803F0C7FD014630B1BDE8CB
:102E400010400B4B0B48196810F0EDBB206803F0E5
:102E50009DFB4068FFF7DEFDBDE8104000F00CB8B8
:102E600010BD00BFE82B0020E42B0020EC2B00203D
:102E7000E8290020A1DB01002DE9F04FDFF8C08038
:102E8000044698F800502B4F85B065BB3E464FF086
:102E90000109306813F039F8E8B130683179F38806
:102EA000D0F810C0DA0754BF43F4B01383F4D01342
:102EB000DCF800A023F4801209FA01FBDB07D0F84C
:102EC00008E04CBF4AEA0B032AEA0B03CCF80030B7
:102ED000DEF8003098470135042D06F10806D8D1F8
:102EE000012388F800300025124E3179002256F86F
:102EF000080B01350EF0DAF8042DF6D1032C16D8A4
:102F000007EBC40357F83400197901220EF0CEF80C
:102F1000094B04AD0FCB05E90F0005EB840454F811
:102F2000101C064805B0BDE8F04F10F07CBB05B0A2
:102F3000BDE8F08FB4CF010060800100C9DB010063
:102F4000807401202DE9F04F91B0009302F004034A
:102F50000293C2F3C2030133840705460E46DDF82F
:102F600068800392059340F0BB81041D30B10729AE
:102F700009D86FF01B0011B0BDE8F08F01F0070613
:102F80003444C6F10806009B4FF000094FF0040AD4
:102F9000591E4FF0FF334F460193CB465346CDF8B1
:102FA00010900DB1009820600598002800F3E8808B
:102FB0009848009A824203D397488242C0F0E0804A
:102FC000039AA4EB050E92074FEA9E0000F10381DD
:102FD0000F2F00F2B180002D00F0058107F14002B3
:102FE0000DEB020C019A0CF8200C0CF8102C049834
:102FF00001300490E7E07A285DD84B280ED84728A6
:1030000059D829282DD8252852D054D820287AD00C
:103010002338D0F1000B4BEB000B74E04C382E281A
:1030200049D8DFE800F070484848484848484848D0
:1030300048484B484848484848484859484B4B59E5
:103040005959704B6D487048184B184848827F4B4F
:1030500048484B487F0000204FF0000B4FF0040A17
:1030600038E001222A38C0B202FA00F010EA0E0F4E
:1030700049D110F0625C2FD110EA020B43D06046B8
:10308000013C5444B4FBFAF40AFB04F4002D61D073
:10309000A3EB050CA444B4453FF66BAF002868D100
:1030A000042B47D158F8043B2360042304342AE05E
:1030B000019A013A01924FF0000B24E011F8010C43
:1030C0006C2834D1002011F8023C83466C2BC5D10A
:1030D0004FF0080A5346D3E708F1070828F007081D
:1030E000073424F00704F8E802AB35B10698204411
:1030F000B0423FF63EAFC4E900AB4FF0000B0834DE
:103100004FF0080A534611F8010F002878D0BBF1A0
:10311000000F7FF470AF2528F5D14FF0010B019B14
:10312000013301934FF0040AECE7584694E700207E
:103130008346A5E7082B02D06FF015001BE708F1C6
:10314000070828F00708B8EC027B84ED007B082311
:103150000834D8E768B9042B02D108F10408A4E7C1
:10316000082BE9D108F1070828F0070808F108083A
:10317000EDE705980138059058F8040B009010E72A
:10318000039A900720D54FF0010CA4EB050E4FEAEF
:103190009E00BEF5007FCFD20F2FCDD8F5B107F13D
:1031A00040020DEB020E019AC0B20EF8200C0EF890
:1031B000102CBCF1000F3FF41AAF60F07F000EF846
:1031C000200C09F101090137C5F108024FF6DA7E3A
:1031D0000434069297E74FF0000CDAE7BCF1000FD9
:1031E00001D00136EFE7029A0236002AEBD10098AF
:1031F000CDE90631FEF73AFCDDE906310644E2E7A7
:10320000631BB3F5806F97D245B9A6F10804E018A7
:10321000B1E600BFE8740100D00D0200029A9B08DD
:1032200028602B709DF81030C2B1EB7085F80290C9
:10323000B9F1000F05D0002208A8C5F1010C974292
:103240000ED14FF0000AC5F101030DF120080193E2
:103250000DF1300B574512D1601B8CE66B70E5E722
:1032600010F8013B190608D50CEB040EB64503F027
:103270007F033FF67EAE04F8013B0132DFE7B9F190
:10328000000F03D098F90020002A17DB029BD3B16E
:103290001AF80B2004F8012B0022019B1819104486
:1032A000B0423FF666AE98F80000009904F8010BB2
:1032B0002046039213F0E3FD039A14440AF1010A35
:1032C00008F10108C6E798F8002055F8223000936D
:1032D000029B009845F82230FEF7C8FB421CDCE751
:1032E0006FF00D0047E600BF2DE9F04F97B000AF3B
:1032F000D7F880B03B62CBF3C0030446894690F810
:1033000002A0FA62BB6141B9457800780AEB8000FF
:1033100020444D4517D8A0EB0409E378FB61BAF1CE
:10332000000F02D01BF0010F16D1FB6953BBFB6AE3
:103330001BB1494620463A6A98474D4628465C37B5
:10334000BD46BDE8F08F461C3046FEF78FFB0130CE
:10335000304409F10109DCE7626823787A62FA6A8D
:103360009900796104EB8301002A40F001810E4647
:103370004FF000084D4601EB0A094E454CD101EBD8
:103380000A0610E01BF0020FD1D023789A007A6170
:10339000626804EB83017A62FA6A002A77D14D46AB
:1033A000904601EB0A061BF0050F0CBF0223012318
:1033B000FB62FB6906EB430A0BF00203BB62564556
:1033C000BCD016F8021B16F8013C54F82390994B18
:1033D000994502D3984B994536D3BB69002B40D011
:1033E000786A0EF05FF900283BD0E9468AB06A4659
:1033F000924B53617B6AC2E906314FF40073138428
:103400008F4B42F8103F00234FF412518D4800F0CB
:1034100019FD023DCD46D2E716F8013BF96254F89A
:103420002300FEF723FBD7F88430F96A01304BB153
:10343000D7F8883098453EBFD7F8843023F8180075
:1034400008F10108054498E7BB6923B1786A0EF0DA
:1034500029F90028C9D11BF0010F05D1FB6AED1A2B
:10346000ADE7BB6A002BAAD04846FEF7FFFAD7F8B3
:10347000843053B1D7F8883098453FBFD7F88420BF
:10348000431C22F8183008F10108054497E7BAF107
:10349000000F73D01BF0040673D0D046002607F14E
:1034A000480052463B61B96213F0E9FCB96A3B69D6
:1034B00001EB0A02BA62FA69F9695200FA60BA6A63
:1034C00002EB41023A610BF00202BA603A69B96A52
:1034D0008A4258D162781BF0020F18BF00217A622D
:1034E00008BF4FEA5801B2181BF0010FD2B240F0EA
:1034F0009F801BF0040F14BF40460020BB61627028
:10350000A070E17020463A6A7969FB6A9847051E07
:10351000FFF614AFBB69414623707B6A3A6A637059
:10352000FB6984F802A0E37007F14800FB6A984742
:10353000B0F10008C0F2BA807B69A9EB0A01C91A90
:10354000FB683A6AC91AD7E90A0398470028C0F20B
:10355000AF804FF0000BA84408EB000507F1380AD4
:10356000B34571D300213A6A0846FB6A9847E5E6FD
:1035700056464FF0000807F1380092E75646D0460D
:1035800096E7B04694E7BA6A12F8021B12F8015C9B
:10359000BA6254F82500274A904202D3264A904244
:1035A0001ED3BA6932B1786A7B600EF07BF87B6813
:1035B00000288BD1BA6802BB08F1280207F1300C51
:1035C00008F10100944407F1580208F1020852FA88
:1035D00080F00CF8101C5FFA88F800F8105C75E7B2
:1035E000BA693AB1786A7B600EF05CF87B680028B3
:1035F0007FF46CAF1BF0010F09D006F1280207F130
:103600003000711C161806F8205CCEB25EE71BF085
:10361000040F3FF45BAF08F1280207F1300008F116
:10362000010102EB000808F8105C5FFA81F84DE731
:10363000002063E7E8740100D00D0200E9DB01001F
:1036400004000001947F01001BF80A3054F8239015
:1036500087F83730D7F884302BB3D7F888309B45BC
:1036600021D2D7F8843033F81B8001213A6AFB6AF3
:1036700007F13700984700281ADB0544B8F1000F1E
:1036800006D14846FEF7F2F900F101081FFA88F862
:10369000414648463A6AFB6A9847002808DB0544D9
:1036A0000BF1010B5CE74FF00008DEE7454645E60D
:1036B000054643E6014B1860704700BFD00000206C
:1036C00080B505460E46174698460AF0E3FB0346CA
:1036D00013F0DEFD0446DFF81890424649F800304A
:1036E00039463046A84754F8090001F001FA00BFF6
:1036F000080000002DE9F047858B04462807904616
:1037000011D4022905F0070540F0CC8020460EF0C8
:1037100068FA78B10138A18B042811D8DFE800F0ED
:10372000C2106D85950001290CBF45F0100545F0CC
:103730002005A58388F31188BFF36F8FBDE8F0875C
:1037400001F0070AAA4500F0A5800027B9463E46C9
:10375000A368002B00F0BC8041F00801A18388F32E
:103760001188BFF36F8FA168002900F0BA800D683F
:10377000002900F0B680334652462046D1F8048036
:10378000C047002D76D02B6829461D46F0E701F092
:1037900007035A1F012A1BD8002221F00701062B1C
:1037A000276889B2C4E9002209D13B4603E0E28BD5
:1037B0000132E2831B68002BF9D141F0020120465F
:1037C000A1830EF00EFA00287AD041F0200176E0B5
:1037D000042B0AD121F0070189B22046A1830EF003
:1037E00000FA10B141F02001A183A18B01F0070A7A
:1037F000AA454FD00027B946AAE7236921F007015F
:1038000041F00601062DD3F80090A1832DD1B9F126
:10381000000F3FD041F00801A18388F31188BFF366
:103820006F8F20463949C84729E021F007012369F5
:1038300041F0040189B2042DD3F80490A183E6D0AD
:1038400000274FF0040A3E4682E721F00701236972
:1038500041F0050189B2052DD3F80890A183D6D097
:1038600000274FF0050A3E4672E700274FF0060A90
:103870003E466DE72B4687E7B9F1000FD1D1EFF354
:103880001188202383F31288BFF36F8FA38B23F05B
:103890000803A383A58BEA062ED525F01003A38386
:1038A00005F00705A669A18B002EBFF670AF0023B7
:1038B0002768C4E9003321F0070141F00101A18329
:1038C000A18B4FF0000901F0070AAA457FF440AF31
:1038D000002F9CD041F00801A18388F31188BFF329
:1038E0006F8F002FC8D03D68394633465246204678
:1038F0000EF0A3F92F46F4E7AB067FF51BAF25F0DA
:103900002003A38305F0070500E700BF671C010043
:103910002DE9F047044607464FF00109DFF85080D3
:1039200014B93846BDE8F08794FAA4F5B5FA85F5E0
:1039300009FA05F32E0108EB05156FEA030A24EADC
:1039400003042B7B002BEBD058F806301B694BB9D6
:103950004644736804222846196807EA0A070EF0ED
:103960006DFADDE7284698470028D9D1F0E700BF77
:103970000C80010030B5002289B00F490F4812F0C9
:1039800069FC002200230024CDE906230E230C4D00
:10399000CDE903344FF440722846CDE90144094B88
:1039A0000949009409F084FF0849284609F008FFF6
:1039B000204609B030BD00BFD1390000700800209A
:1039C00060030020E93C0000A87401209DDC010098
:1039D000014809F053BD00BF2C0300202DE9F0473A
:1039E000804621480F460EF00DFA0646002833D0D7
:1039F00000252846BDE8F087237B83B12368DB6878
:103A00000BB120469847636883F8069023681B69CA
:103A1000D3B963680422204619680EF00FFA013604
:103A200010345445E8D3B8F1000FE2D0002DDFD0B8
:103A30002846FFF76DFF0546002FF7D0002140F222
:103A400039100AF0D5F9F1E7204698470028E0D070
:103A500009FA06F31D43E2E705464FF00109034C5E
:103A6000DFF80CA0DDE700BF082C00200C8001006F
:103A70001C800100014B53F820007047E8CF010083
:103A800008B5034608462BB1044A136000F072FCE7
:103A9000002008BD6FF01500FBE700BFD400002038
:103AA00010B5044C237813B9034809F0E7FC01234F
:103AB000237010BD817401202C03002010B5044632
:103AC00009480EF09FF93CB1084BD3E8EF1F0139CC
:103AD000C3E8E21F002AF8D1054812F0C7FBBDE891
:103AE0001040044809F0CABC002C0020042C00201F
:103AF000700800202C03002000200146034BD3E86F
:103B0000EF0FC3E8E21F002AF9D17047002C002014
:103B100070B5FFF7F1FF0546074C084EB44200D3DD
:103B200070BD63685B792BB123685B6813B129466C
:103B3000204698471034F1E70C8001001C800100FA
:103B400010B5044C044920460DF0E4FE034B1C6004
:103B500010BD00BF88020020D4CF0100F82B002048
:103B600000230D4A10B513700C4A0D4913600D4A1D
:103B70000D481360FFF784FFFFF7E2FF0B4B0C4982
:103B800018468B4200D310BD1A1A5C68121101321C
:103B900022711033F5E700BF82740120002C002051
:103BA00040420F00042C0020011E01000C80010087
:103BB0001C80010001460022002301480DF0CBBE0D
:103BC0008802002001480DF064BF00BF8802002079
:103BD000024B014618680DF0B0BF00BFF82B002063
:103BE00001480DF0E5BF00BF8802002070B5274BEB
:103BF0001878002849D0FFF7E5FF0546002841D195
:103C0000234B244C1B68002B19DD12F021FB4FF4D1
:103C10007A75A0FB050647F61222002305FB016119
:103C2000FDF74CF9D4E90032C01A40F2E93361EBF8
:103C30000201984271F1000101D3FFF769FFD4E955
:103C4000003213F57A7342F10002C4E90032BDE894
:103C50007040FFF7C5BF63685B7923B123682946CD
:103C600020461B6898471034B442F4D32846FFF727
:103C7000AFFF094BD3E8EF1F0139C3E8E21F002A69
:103C8000BED0F7E7054C064EEEE770BD817401200B
:103C9000002C002068080020042C00200C8001006B
:103CA0001C80010070B50D4D297861B90120FFF726
:103CB00095FE0B4C0B4EB44206D3FFF797FF00283E
:103CC000FBD101232B7070BD63685B791BB1236846
:103CD00020469B6898471034EDE700BF82740120AE
:103CE0000C8001001C80010000212DE9F0470846EE
:103CF000FFF774FE044658B340F21B684FF000090A
:103D000013F0C6FA1B4B1C4A1B58136033B11B4BF4
:103D10001B68092B02DD1A4809F0B0FB0025194F7A
:103D2000DFF85CA044B12046FFF7F2FD044618B965
:103D30004FF0FF384FF0FF39FFF758FF064628B91C
:103D4000B5B942464B46504609F0CCFB3546E9E74B
:103D50004FF0FF384FF0FF39D2E72B689B691BB15A
:103D600000222846114698471035BD42F5D3E8E7B2
:103D7000054DFAE708000000FC2B0020042C002071
:103D80002C0300201C8001000C80010013B5184892
:103D90000EF038F8174B1B7873B1EFF31184202322
:103DA00083F31288BFF36F8FFFF720FF84F311882E
:103DB000BFF36F8F02B010BD0F4B1B68002BF9D003
:103DC00050B9002200230D48CDE9002347F6122206
:103DD00000230AF077FBEDE70928EBD1074812F042
:103DE00045FA074802B0BDE8104009F047BB00BFE4
:103DF000042C002082740120FC2B0020700800207D
:103E00002C03002010B5064B04461B68984721463A
:103E1000A06004480DF01EFEBDE81040FFF7B6BFDD
:103E2000D400002088020020044A054B9B1AB1EB05
:103E3000D30F34BF52F8310000207047847F010057
:103E40000C8001002DE9F04F8FB0C1F34A2804AF78
:103E50000D469146B8607B600C0DB8F1000F63D041
:103E600000264FF0040B4FF00A0A07F11403C7F8BD
:103E70000C80C7E907667E620193CDF808B0CDF8E3
:103E800000A007F11C0332464846F968FFF72CFAF8
:103E9000B0F5006F03461CD36C468AB0D9F8041005
:103EA00004AB26481A46C3E9050140F2FF71D96107
:103EB0004FF400711984224B42F8103F4FF4125115
:103EC00033462048FFF7BEFFA5462C37BD46BDE868
:103ED000F08FC0F30A0804F11700184420F007001F
:103EE00080083B60FFF766FE68F35325044690B1F7
:103EF0003B6800F11001C7E9083607F11403F961C6
:103F0000CDE900A3CDF808B048460F4AF96807F19B
:103F10001C03FFF7E9F968F353252A4620467B681E
:103F2000B9680DF0ABFFD0E704F1170020F00700EF
:103F30008008FFF73FFE0446EDE700BFB2DC01005A
:103F400004000001CC7F01004F1E01002DE9F04F5D
:103F500087B00446DDE9105ADDE9127993469846A8
:103F60000391BFB13B46524610210020CDF800908E
:103F7000CDF81490FEF7E6FFB0F5006F06460AD3C1
:103F800040F2FF730221174A174807B0BDE8F04F0F
:103F90000DF0CDBF3E4605F11700304420F007007C
:103FA0008008FFF707FE04F007040BF0070BE4009E
:103FB00044EA8B1444EA462444EA0554054640B1D9
:103FC0003FB13B4652463146CDF800901030FEF7E7
:103FD000B9FF434622462846039907B0BDE8F04F93
:103FE0000DF04CBFF1DC0100CC7F0100406820B136
:103FF000034BC01A40F3CF0070474FF0FF307047BB
:10400000847F01000EB403B503AB53F8042B0146C3
:104010000448019301F008F902B05DF804EB03B025
:10402000704700BF911F0100CA0605D48B064CBF24
:1040300002490349FFF7E6BF704700BF2ADD0100D0
:1040400029DD01002DE9F04F8BB09B46169B9DF8B2
:1040500054A00693179B04460593189B0D46904663
:10406000199E0493BAF1000F00F09E8006F0010340
:10407000089306F00803079306F4807309930DF084
:10408000DBFE06F00209024600283BD020468F499D
:10409000FFF7B8FF0746B9F1000F08D016F0440F3C
:1040A00032D12A4620468A49FFF7ACFF0744089BD5
:1040B00053B1884B204653F82A20874B8749002A62
:1040C00008BF1A46FFF79EFF099B002B48D0079BAD
:1040D000002B62D1B8F1000F64D0424620468049DF
:1040E000FFF790FF0546069B3D44002B6BD1049BD8
:1040F000002B71D1F30700F1E28031462046FFF733
:1041000093FFD6E00746C6E7764B18680028CDD067
:10411000754B4FF47A791B684FF03C0CB5FBF3F507
:10412000B5FBF0F14FF4616300FB115509FB05F598
:10413000B1FBF3F2B5FBF0FE03FB121100FB1E55C1
:10414000B1FBFCF309FB05F5B5FBF0F50CFB131116
:1041500020460091CDE901E56449FFF753FFA5E74B
:10416000079BEBB1624B204653F82A206149FFF7C9
:1041700049FF0546B8F1000F05D042462046584990
:10418000FFF740FF0544BBF1000FACD05A46204674
:104190005949FFF737FF0544A5E74FF0000BE1E76A
:1041A000079DE7E745469EE7BBF1010F069B06D159
:1041B000002B64D1049B002B7BD000250CE0002B4E
:1041C000F8D04E485CE04E48069B22464D490DF023
:1041D00038FA049B002B68D0DFF83881DFF838917B
:1041E000049F3146102F204628BF10274FF0000BA8
:1041F000FFF71AFF5D4545DC059B494620461A78C6
:10420000FFF700FF4FF0010B1BF0070F03D14146F2
:104210002046FFF7F7FE5F453BD9059B4946204600
:1042200013F80B20FFF7EEFE0BF1010BBBF1100FA3
:10423000EAD14FF0000B20463349FFF7E3FE5A4620
:10424000059B20469A5CA2F120015F2928BF2E22FF
:104250002E49FFF7D7FE0BF1010BBBF1100F1DD05C
:104260001BF0070F03D141462046FFF7CBFE5F4509
:104270005A46E5D841462046FFF7C4FEEBE7204802
:104280005546A1E741462046FFF7BCFE0BF1010B66
:10429000B0E720461E49FFF7B5FEC5E7059B3B4446
:1042A0000593049BDB1B04939AD1BAF1000F7FF4B2
:1042B00021AF20460BB0BDE8F04F0DF05CBE2046AC
:1042C000054A0649FFF79EFE17E700BF31DD0100F2
:1042D00035DD0100F8CF01002CDD0100DBDB010042
:1042E0005ADD0100102C00200C2C00203EDD0100C6
:1042F0000CD001005EDD010064DD0100BF1F010084
:10430000911F01002952000073DD010075DD0100DD
:104310006FDD010029E7010069DD010042F20F7342
:1043200073B58B4228BF0B460568044605216846D5
:104330000D4A0BF07BFB0646636828460B225B6840
:104340000A490DF00AFE63683246694628465B68F2
:104350000DF003FE63681B2228465B6804490DF0DC
:10436000FCFD02B070BD00BF62E6010094DD0100FB
:1043700078DD010000210123064A904206D8064A52
:1043800001B901231360054B1860704701214008F3
:104390005B00F2E740420F000C2C0020102C0020A4
:1043A000F8B50D460446064F4618B44201D12846DA
:1043B000F8BD14F8011BBB6801485B689847F4E737
:1043C000E8750100014B03600020704754D00100E4
:1043D00008B504480DF08DF9BDE8084002480DF01D
:1043E00088B900BFDADD01000FDE010008B503481F
:1043F000034A0021121A0DF05EFE08BD6003002082
:10440000A4740120074808B5074A0849121A0DF09C
:1044100054FEBDE808400648064A0749121A0DF046
:104420004CBE00BF400000205C030020D00D020005
:104430004000002040000020D00D02002DE9F84F80
:1044400080460C4600AF002965D0D1E90012E9464C
:104450008AB0A3686D464FF0050A2E463748C5E975
:104460000723C5E9050146F810AF002332464FF493
:1044700021513348FFF7E6FCD4E90312CD466369C6
:10448000AD463048C5E90723C5E90501C5F810A0C8
:10449000002332464FF421512948FFF7D3FCCD4683
:1044A000E3690121284A26480DF041FD26460025F2
:1044B0004FF00A0ADFF8A0B0E946D6E908E0D6E9ED
:1044C0000A138EB06A46C2F81CE005F1010EC2E97B
:1044D00008E0A81CC2E90A01E91CC2E905B5C2E965
:1044E0000C1342F810AF002345F240011448043584
:1044F000FFF7A8FC102DCD4606F11006DCD1236E87
:104500000121124A0E480DF012FDA3690121104A43
:104510000B480DF00CFDB8F1010F07D1EFF3058347
:104520000C4A41460648103B0DF001FD214640462D
:1045300008F042FDBD46BDE8F88F00BF3DDE01003A
:10454000EC7F01006CDE01009BDE0100EDDE01006E
:10455000FCDE01002ADF0100AADE010030BFFFF708
:10456000FDBF00BF2DE9F04105460B4EDFF830805E
:10457000324606EB0807CC1B2046084912F07FFCA8
:10458000A01942460021083C12F086FCC5F8B44050
:1045900007F10800BDE8F081000000006080010024
:1045A00008000000054B9A699B689A421FBF044AA5
:1045B000536843F080535360704700BFE82D0020DC
:1045C00000ED00E070B52A4C06460D4629482A4900
:1045D0000DF085FDA36ADB0647D5264827490DF077
:1045E0007EFD1120A36A1C0704D5224824490DF042
:1045F00076FD12201E4CA36A990712D521491D4849
:104600000DF06DFD636BA26A120609D501211E4AE9
:1046100018480DF08CFC1EB1A36A23F08003A3623E
:104620001320134CA36ADE0704D5124817490DF076
:1046300056FD1420A36A9C0604D50E4814490DF0BB
:104640004EFD15200A4B9A6AD10658BF9A6A9A6A9B
:10465000920642BF5A6A22F400525A629A6A42F0A3
:10466000FF029A6200232B7070BD1020BAE700BFD2
:1046700000ED00E0EC7F01003DDF010053DF0100B1
:1046800086DF010099DF0100B1DF0100C7DF010013
:10469000E6DF010010B5244C244925480DF01FFD2C
:1046A000A36A99013ED5224822490DF018FD1E202B
:1046B000A36ADA0104D51E481F490DF010FD1F2022
:1046C000194CA36ADB0204D519481C490DF007FDFB
:1046D0000220A36A1C0304D5154819490DF0FFFCFC
:1046E0002120114CA36A590304D5114815490DF036
:1046F000F6FC2220A36A9A0304D50D4812490DF056
:10470000EEFC2320084CA36ADB0304D508480F49BC
:104710000DF0E5FC2420A36A6FEA03436FEA13431C
:10472000A36210BD1D20C3E700ED00E015E001000D
:10473000EC7F01002DE0010040E001005AE00100A3
:1047400084E00100A2E00100C7E00100E1E0010017
:1047500070B5294C06460D46284829490DF0BFFC86
:10476000A36AD9043CD5254826490DF0B8FC17208A
:10477000A36A1A0504D5214823490DF0B0FC18207E
:104780001D4CA36A9B0512D51C4820490DF0A7FCBF
:10479000A36BA26A100409D501211D4A17480DF028
:1047A000C6FB1EB1A36A23F40043A3621920124C76
:1047B000A36A590504D5114816490DF090FC1A203A
:1047C000A36ADA050ED50D4813490DF088FC1B20AD
:1047D000094A936A43F47F43936200232B7070BDB0
:1047E0001620C5E7A36A9B04F2D504480B490DF0D7
:1047F00076FC1C20ECE700BF00ED00E0EC7F010040
:104800000CE1010022E1010086DF010033E101003B
:104810004CE1010061E101007CE10100E6DF010003
:104820002DE9F0419CB0624B0546D3F80480002688
:1048300000AFC8F3080486F31188BFF36F8F02F04E
:104840007F43B3F17F4F07D102F00C03082B12D145
:10485000584959480DF043FC002635460023FB71AA
:10486000E31E092B00F28380DFE803F00A797C75F0
:1048700081818181817F10074CBF0D460126EDE7C4
:104880004E494D480DF02BFC0023494CFB71E36A67
:104890009A0705D54A4948480DF021FC002431E02B
:1048A000E36A002B01DA4749F5E7E36A5B00F5D5D7
:1048B000454941480DF013FC6369AA6943F48073CC
:1048C0006361BFF34F8FBFF36F8F636932F8022CC0
:1048D00023F480736361BFF34F8FBFF36F8F4DF687
:1048E00002739A4207D0A36ADBB23BB30120F91DE1
:1048F000FFF768FE31E02B680121344A2E480DF0A5
:1049000016FB2C68FB79ABB96822294607F1080031
:1049100012F0B5FA7B6A002E45D0C3F3080222B923
:104920006FEA53236FEA43237B62204607F10801B5
:10493000FFF784FD7037BD46BDE8F081A36A13F42C
:104940007F4F04D00120F91DFFF702FF05E0A36AA5
:10495000B3F5803FA2D3FFF79DFE0446D2E70020C7
:10496000F91DC5E70020F91DEEE7194993E7194A3B
:1049700018F4F87FE8468AB0174B18BF13466A460A
:104980001649103CC2E905134FF400731384144B0D
:10499000D46142F8103F00234FF411510648FFF74D
:1049A00051FAC5467AE723F4FF7323F00103BBE70E
:1049B00000ED00E0C2E10100EC7F0100EDE101004B
:1049C00004E2010025E2010033E2010052E20100AD
:1049D0006EE20100A9E1010094E1010092E2010010
:1049E00004000001064B5A6942F010025A615A69EC
:1049F00042F480625A615A6922F008025A61704793
:104A000000ED00E0EFF30880EFF3098101B5724695
:104A1000FFF706FF01BD00BF002080F31488BFF33D
:104A20006F8F002080F30A8880F30B88104880F392
:104A3000088800200F49087006F0E6FF00200E49A4
:104A40000860BFF34F8F00F02DF8202080F311880D
:104A50000A484FF40061401880F30988EFF314808E
:104A60000221084380F31488BFF36F8F00F00EF922
:104A7000E8A001209B74012094ED00E0A8770120BC
:104A8000002318460649D1F89020C2F3072293422A
:104A900000DB7047C1F89830C1F8A0000133F6E799
:104AA00000ED00E010B572B6002484F31388FFF720
:104AB000E7FF23464FF0FF300C4A03F1200101339A
:104AC000102B42F82100F8D100234FF0FF30074AA5
:104AD00003F160010133102B42F82100F8D162B6D6
:104AE000BFF34F8FBFF36F8F10BD00BF00E100E039
:104AF000084B9B6883420BD1EFF3058343B1064B10
:104B00005A6842F080525A605A6A22F400425A624D
:104B100009F0C6B9E82D002000ED00E025498A68BB
:104B200082F801E14FF030001044EFF3098C80E887
:104B3000F01F1EF0100F03D102F1C00080EC108AAC
:104B4000202080F31288BFF36F8F1B4F4FF0006659
:104B50008A698A603E60D2F8B400184C206092F9ED
:104B600001E1D2F8B8000023C2F8B83080F3118810
:104B70001EF0100F03D00023E1EE103A03E002F123
:104B8000C00090EC108AEFF3148323F0040383F346
:104B90001488BFF36F8F02F1300090E8F01F8CF3A0
:104BA000098802F1000004B50DF0A1FABDE8044047
:104BB00070470000E82D002004ED00E0382C0020B4
:104BC0001EF0040F0CBFEFF30880EFF3098081693A
:104BD00011F8021C0229FFD001B572460DF06FFAE0
:104BE00001BD00BF00B2002807DB01234109034AD1
:104BF00000F01F00834042F82130704700E100E0E0
:104C000000B200280CDB01220649430900F01F0016
:104C10008240203341F82320BFF34F8FBFF36F8FC3
:104C2000704700BF00E100E0054B420953F8222025
:104C3000012300F01F0003FA00F01040704700BF8E
:104C400000E100E000B2002801F10101ACBF00F179
:104C50006040064B4FEA4111C9B2ABBF00F561405D
:104C600000F00F0080F800131954704714ED00E0B5
:104C7000044B054A23F07F039360BFF34F8FBFF3CC
:104C80006F8F70470000000000ED00E008B5FFF7EF
:104C9000EFFF104BD3F8882022F47002C3F888206D
:104CA000D3F8882042F4A002C3F888204FF0404295
:104CB000C3F83422BFF34F8FBFF36F8F0023E1EEB1
:104CC000103AFFF793FBFFF79DFB00F07DF808F02B
:104CD000A5FA00BF00ED00E042F8203C009B0D4922
:104CE00042F81C3C019B21F0010142F8183C029B58
:104CF00042F8081C42F8143C4FF0807342F8043C20
:104D00000023C0F8B8304FF47D43203A0265C0F864
:104D100000317047C1360000104B9B6883421AD1A6
:104D2000EFF30580B8B9EFF31181202282F31288E6
:104D3000BFF36F8F1A7B22F002021A73EFF3148312
:104D400023F0040383F31488BFF36F8F81F311887A
:104D5000BFF36F8F70476FF015007047E82D00208C
:104D60000E461546002300B5E1EE103AEFF314832A
:104D700023F0040383F31488BFF36F8FBFF36F8FA7
:104D80000C4BD0F8B42098600B4B1A60D0F8A430CC
:104D900083F30B882C4686F309880020034B984741
:104DA0002046002100220023014C2047FD20010065
:104DB000C1360000E82D0020382C00201022014BC5
:104DC0001A61704700ED00E00023202040F20F122E
:104DD00010B5044CE1180133934281F80003F9D176
:104DE00010BD00BF00E100E008B5EFF30583064AFF
:104DF000103B02EBC30152F8330049688847BDE815
:104E00000840FFF7CFBB00BF687601001FB5094C13
:104E1000094A23460121094800F012F900230393AF
:104E2000074B0121E41A01A80193029400F012F942
:104E300004B010BD00F002200000002054D001009A
:104E40006003002010B50C7A0B6804F01F0223F0F9
:104E50001F031A43CB68640923F01F03054943EA83
:104E6000440343F00103C1F89800C1F89C20C1F845
:104E7000A03010BD00ED00E010B50A4BD3F8903023
:104E8000C3F30723013B984208D901210346064A90
:104E900006480DF04CF86FF0150010BDFFF7D2FF7B
:104EA000FBE700BF00ED00E0A9E20100E47F0100A4
:104EB0002DE9F04F8946144606464FF00008514D43
:104EC00085B0C84527DAD6F804A0BAF1000F44D05F
:104ED000BAF11F0F17D91AF01F0F14D1D6F800B06E
:104EE0001BF01F0F0FD158460DF02BF907460AEBA8
:104EF0000B0001380DF025F9874210D06FF015072F
:104F0000414A3B4601E04346404A012140480DF0FA
:104F10000EF86FF01504204605B0BDE8F08F17F1CC
:104F2000160FEDD0BC42EBDDC5F89870D5F89C109B
:104F3000C5F89870D5F8A03021F01F0143F01F0B81
:104F4000D6E900321A44994202F1FF3A1DD1D34505
:104F500007D13146F8B20DF0FDF808F101080C3622
:104F6000AFE73146C5F89870D5F89C3022F01F02A3
:104F700003F01F031343C5F89C30E0B20DF0EAF8CC
:104F800010F1160FC5D0441CE7E7C5F89870D5F8A6
:104F9000A020013B23F01F0302F01F021343D3455F
:104FA0003146E0B2C5F8A030E8D00DF0D3F810F1EA
:104FB000160FAED0C5F89870D5F89C209DF8083033
:104FC0000BF1FF3B62F304038DF80830D5F8A030F5
:104FD0009DF808205B0863F347128DF80820D6E996
:104FE00000321344009323F01F035B44A3EB0A0336
:104FF000013023F01F036946C0B20393FFF73CFF63
:10500000BEE700BF00ED00E0F2E20100CFE20100E8
:10501000E47F01000522044BC3F89420BFF34F8FB7
:10502000BFF36F8F704700BF00ED00E0BFF35F8FED
:105030000022024BC3F89420704700BF00ED00E04F
:1050400010B5034C2278FFF733FF207010BD00BF6E
:10505000847401202DE9F74F294D8A4606464FF00A
:105060000008AB46274FD0451BDAD6F80490B9F1BB
:10507000000F3FD03168084601910DF062F80199A8
:10508000044609EB010001380DF05BF884424FF053
:1050900014021D4B08D002FB08F36FF015024BF809
:1050A000032003B0BDE8F08F14F1160F2C60F8D088
:1050B0001978A142F5DD02FB08B0C7F89840C7F89F
:1050C0009840D7F89C4000F10801007B64F304008D
:1050D0000871D7F8A0000C79400860F347140C71F0
:1050E000D7F89C1021F01F016960D7F8A01021F0BB
:1050F0001F01296108F1010814350C36B3E700BF20
:105100003C2C002000ED00E084740120F0B5414902
:10511000414CD1F890302568C3F307239D4287B0F6
:1051200075D80020FFF782FF3C4BC1F8C0308542A4
:1051300016D13B4C01A82570FFF744F9002506461F
:10514000384FAE4213D1002023783249D1F8902055
:10515000C2F30722934254DBFFF75CFF00202FE0ED
:10516000616801EB0011FFF76DFE0130DFE7019987
:10517000280101EB0513DA683A40B2F5001F21D08F
:10518000B2F5800F2BD0B2F5801F38D15A689B68DA
:105190000958013B22F01F0003440120844623F0FC
:1051A0001F0340EA4C10CDE902218DF8100002A93E
:1051B00020780593FFF760FE00281DDA6FF01500D8
:1051C00007B0F0BD5A689B680958013B22F01F00E8
:1051D00003444FF0020C012023F01F03E1E75A685B
:1051E0009B680958013B22F01F0003444FF0000C5C
:1051F000062023F01F03D4E7237801332370013501
:105200009FE7C1F89830C1F8A00001339EE74FF046
:10521000FF30D5E700ED00E060D00100AAFF4400B8
:10522000847401200000F0FFF0B587B007460E46F9
:1052300014460021102268461D4611F02DFE02235F
:105240008DF80230054B2A4621466846CDE90476A2
:1052500001930AF0B1FC07B0F0BD00BF8D21010041
:1052600008B5024B1B689847002008BD502C002051
:10527000034B044A1860937843F00203937070471D
:10528000502C0020E000002008B505480CF031FA51
:10529000002383F31188BFF36F8F0423184602DFC6
:1052A00024E3010008B50649064821F00701C1F1D1
:1052B000005202F53C320CF06CF9002008BD00BF32
:1052C000EFB00120542C00204FF0FF324FF0FF339D
:1052D000014808F00BB800BFF0000020014808F0BA
:1052E0007DB800BFF000002038B50546FFF7ECFFA1
:1052F0002A46082107480CF0D0F8044628B925B101
:1053000011F0C6FF0C22044B1A50FFF7E7FF2046AE
:1053100038BD00BF542C00200C00000010B504461E
:10532000FFF7D2FF214603480CF06AF8BDE81040B1
:10533000FFF7D4BF542C002008B5234A234B1A6032
:1053400000F05EF84FF47A612148D0F82436C3F3B8
:105350000802C3F309434B4382F480721D4988322B
:1053600001FB02334FF4FA215B00B3FBF1F201FBC6
:1053700012331949B3F57A3F28BF0132C1F8042925
:10538000D0F820364FF47A60C3F30802C3F3094320
:10539000434342F21C5082F4807202F2172200FB57
:1053A00002334FF47A701B0AB3FBF0F200FB1233A6
:1053B000B3F5FA7F4FF0010328BF0132C1F81C2773
:1053C000C1F80036002008BD0020A1072C020020F3
:1053D00000C0FF00F82A00800000125048B1054BC1
:1053E000054A1B68B3FBF2F35843044B43F0010337
:1053F000184770472C02002040420F0090800100A7
:105400000122024BC3F80424704700BF002008E0CB
:1054100070B50D4606490446411A49114022054817
:105420000CF0C8FE2B4601462046BDE870401847E8
:10543000742C00206875010037B540230C460A49DA
:105440000093411A491105462346084A08480CF0C2
:10545000DCFE011E05DA2846234603B0BDE83040D5
:10546000184703B030BD00BF742C00207322010028
:1054700068750100F8B500220121054640F20510CB
:10548000FFF7E0FB0F4806F061FB0446B8B906F0F1
:105490007DFB2F690C4938460CF0F3FB031E09DB3A
:1054A0000126BE642D69084905F120000CF0E9FBD6
:1054B000031E02DA1C462046F8BD6E65FBE76FF05E
:1054C0000404F8E78D2201008CD001001FB50022F2
:1054D0000123CDE902236B46084ACDF800D0CDF870
:1054E00004D00CF0BFFE002805DB43F60952002370
:1054F000684607F0F7FF05B05DF804FB7F22010066
:1055000010B5EFF31184202383F31288BFF36F8F5C
:10551000074A136823F00201DB07116002D401205F
:1055200010F03CF884F31188BFF36F8F10BD00BFFB
:10553000CC2C00200C22104B014602FB0033002033
:1055400030B4D3E910521864EFF31180202484F3AF
:105550001288BFF36F8F9C6C04F0C00444F0020407
:105560009C6480F31188BFF36F8F1DB12B4630BC54
:105570000248184730BC7047742C00206875010041
:1055800010B4EFF31182202383F31288BFF36F8FDF
:105590001748016841F002040460C80708D482F388
:1055A0001188BFF36F8F01205DF8044B0FF0EEBF41
:1055B0001049D1F80C14C903F1D5EFF3118083F32E
:1055C0001288BFF36F8F0C498B6C03F0C00343F05C
:1055D00002038B6480F31188BFF36F8F82F311880D
:1055E000BFF36F8F00205DF8044BFFF7A3BF00BF30
:1055F000CC2C002000E01050742C0020024BC0B2D4
:1056000003EB4010704700BF742C00202DE9F041DF
:10561000012207463449D1E8EF3FC1E8E02F0028D6
:10562000F9D133B9314932484B60CB608A600CF014
:105630003BFB7B1E012B28D8012F06D12D4BD3F825
:10564000503403F00303012B1FD010F0CDFC0546AE
:10565000E8B9294B1B78D3B104220646254BC3F881
:105660000823244CDFF89480D4F84C24D4F84C342C
:10567000D20315D503F00303012B01D0012F0FD165
:1056800065B386F31188BFF36F8FBDE8F081EFF348
:105690001186202383F31288BFF36F8F0125E0E783
:1056A000BDB130460CF03EFDD4F8403413F0FF039A
:1056B000DAD1D4F80821002AD6D0C4F80831D4F8B9
:1056C000083120220123C4F84034C8F8A021236106
:1056D000CAE70021202008F08BFBE5E70422054BF8
:1056E000C3F80423D1E700BF702C0020602C0020F9
:1056F000942C002000E010509B74012000E100E099
:1057000008B5074810F001FC38B10648FFF7B0FDB6
:105710000448FDF7CFFF002008BD6FF01200FBE743
:10572000E8750100295700000A2838B50446074DDE
:1057300004D1AB680D2128465B689847AB680348E5
:105740005B68E1B29847204638BD00BFE8750100AC
:105750002DE9F04340F206354768D00648BF4FF0C8
:10576000030C3B7C02EA050558BFC2F3401C87B01E
:1057700001F01F06B5F5837F144646EA43168DF8FF
:1057800003C046D00DD8062D45D005D8A5B1022DB1
:1057900012D06FF0150039E0B5F5807FF9D1012501
:1057A0000AE040F20222954237D0B5F5407F36D06C
:1057B000B5F5007FEDD104250123220303FA01F1A1
:1057C0002FD57B685960B86880BB5F2E06F01F0339
:1057D0004FEA561173D83C4A52F8212084F48031A4
:1057E00002EB8302D2F88030C1F30041C4F340449D
:1057F00023F4706344EA410423F00F031C4344EA9A
:105800008C0444EA0524C2F88040002007B0BDE8BB
:10581000F0830925D0E70825CEE70625CCE7052546
:10582000CAE7630344BF7B689960CCE731460DF15A
:10583000020210F08DF814F4403F80460CD131463E
:10584000B86810F09EF8B8F1000FDED19DF8021094
:10585000B86806F02DFCD8E74FF0000901ABCDE9A0
:105860000199CDE90439CDF80C903146B86803AA06
:105870000FF0B2FF4845C8DB14F4003314D09DF894
:10588000033084F48034C4F300448DF80E308DF876
:105890000C508DF80D404B463146B86803AA06F00F
:1058A00055FB0028CFDAB0E7CDE904330DF103034F
:1058B00003933146B86803AA0FF08EFFF1E7203357
:1058C00050F82330FFDE00BFB0D001004209022AA9
:1058D000034670B503D0012A18D0CAB170BD0E4E70
:1058E000326951680029F9D0012503F01F030C68C3
:1058F0009D400029F2D08A682A4002D030464B6889
:1059000098473CB1236821461C46F2E7034EE7E77F
:10591000034EE5E72346F6E7C8750100A8750100C8
:105920008875010038B54568A868C0B110F023F843
:105930000146A0B9A86806F083FB044688B9024670
:105940000949A86810F001F822460121DB20FFF781
:1059500079F92246012140F20D10FFF773F900207A
:1059600038BD6FF00400FBE7CD580000F0B5456886
:105970001646A8682A7C01F01F0487B044EA421446
:10598000002868D0B6F5001F04D1214610F04DF86C
:10599000002051E00020B6F5800F01AA0190506070
:1059A00039D1B3F1007F14BF052304238DF80430EF
:1059B0000023CDE904230393EB680DF1030723FAD9
:1059C00001F111F0010139D1B6F1A07F36D104F017
:1059D0001F035F2C4FEA541003F120033ED8214AE5
:1059E00052F8202052F82330DB0727D43A462146CC
:1059F000A8680FF0ADFF163018D002972146A868AE
:105A000003AA0FF0E9FE002816DB01222146A86850
:105A10000FF0B9FFBCE7B3F1C06F05D0B3F1007F61
:105A200014BF01230223C1E70323BFE73946A86857
:105A300006F048FB0028E0DA07B0F0BD3A46214600
:105A4000A8680FF085FF0028D8D19DF80310A8683A
:105A500006F02EFBD2E76FF08500EDE751F823301A
:105A6000FFDE00BFB0D00100044B054A0121936264
:105A7000044AC7201A600022FFF7E4B8F42C002083
:105A8000F401002000700C502DE9F04F89B002AFF6
:105A9000BB60036993463B6143684FF0FF32D3F824
:105AA00020A09B8A0546FB604FF0FF330C460CF0AC
:105AB00071FC3B693C337B6100260023002278693E
:105AC00007F010FD33465E4501D3002340E0207A05
:105AD000010700F1938001365E45D4F800E00BD257
:105AE000820709D4227D80EA020C0CF0010C02F03E
:105AF00004025CEA020C08D023B90EF06042B2F155
:105B0000005F3FD04FF0000801E04FF001086268ED
:105B1000F96803EB020C8C4524D96C468CB02868DC
:105B200002A9384ECA61C1E90563FB680A46C1E9AA
:105B3000083040F203530B85334B42F8103F0023EB
:105B40004FF451513148FEF77DF96FF01B03A54624
:105B500028467B610CF022FC7B691C371846BD4649
:105B6000BDE8F08FC10706D40AEB030071467B60E5
:105B700011F085F97B6862681A4493B2B8F1000F9E
:105B800026D1D3B94FF00008D4F80090A388BA68A2
:105B9000217A284600924A4600F064F8031ED7DBBB
:105BA00043F609520023786907F09CFC40B128466F
:105BB0000CF007FC6FF00403CAE79846D146E6E70D
:105BC0003B69DB6C002BF5DB237ADB0702D4002377
:105BD0000C3478E7CA45FAD123460AE0A8EB020163
:105BE000D8681FFA81F819FA81F17B6011F047F942
:105BF0007B685A680C3B9045F0D2E8E76FF085036C
:105C0000A6E700BF89E3010006000001BC7F010098
:105C100008B5CA0743681ED4C1F3420102290BD05C
:105C200003290ED0012911D14FF0CC729B6A1B6859
:105C30000020C3F8242508BD9B6A4FF0C8621B688A
:105C4000F6E79B6A4FF07F621B68F1E70121034A88
:105C500003480CF063F96FF01500ECE76CE4010009
:105C6000BC7F0100F0B50C461D46164689B047685A
:105C7000122200210DF10E0011F00EF904F00103C3
:105C80008DF80C30BDF8383004958DF80D30BB8C94
:105C90000696AB420AD20A48009301212B46094AD4
:105CA0000CF04FF96FF01B0009B0F0BD84F0020258
:105CB000C2F34002B86A520103A906F047FDF3E7B8
:105CC000BC7F01007EE40100B0B50446456800AF2A
:105CD000AB6998470121E8690CF064FB234629462B
:105CE0002A69A86A0FF02BFF002817DA23686C4690
:105CF00088B06A460C49C2E905134FF400739383D8
:105D00000A4B42F8103F0A4800234FF4E251FEF7D5
:105D100099F86FF00400A546BD46B0BD20460CF0D2
:105D200068FB0020F8E700BFC5E4010003000001A4
:105D3000BC7F0100036803F01F025F2B02604FEA83
:105D400053129ABF024B53F822000020704700BF45
:105D500024D101002DE9F04F1646834640F2FF188A
:105D6000DFF88891DFF888A185B000EB8101594503
:105D700003D1002005B0BDE8F08FDBF80020C2F3AE
:105D8000C323082BC2F3080400F2AD80444508BFCA
:105D90004FF0FF34B2F1D05F19F803704FEA12638D
:105DA00010D2192B12D8DFE803F01423423F293018
:105DB0003F11111111457211111111111111111110
:105DC00075808386382B79D04E2B30D06FF08500CC
:105DD000D0E7C6F80446651C14D0012503A8039437
:105DE000FFF7A8FF039B05FA03F343602A462AE066
:105DF000C6F80C46631C05D00025F7E7601CC6F802
:105E000000466ED10BF1040BB1E7621CC6F80446E4
:105E1000F8D0012503A80394FFF78CFF0122039B10
:105E200002FA03F383600EE0C6F80846E2E7C6F81C
:105E30001046D0E7C6F80046002FDBD1601CE1D049
:105E4000002508272A46DBF80030039403F40040BD
:105E5000002818BF002203A818BF01250193009253
:105E6000FFF768FF039C019B00EB8400D0F88040A3
:105E7000C3F3412C009A3B0243EA8C03134304EA28
:105E80000A04234343EA4503C0F88030BAE7C6F862
:105E90000446D1E7C6F86045621CDBF80030B1D09B
:105EA000C3F30043002BB4D097E7C6F86445F3E78B
:105EB000C6F86845F0E7C6F86C45EDE703A803941B
:105EC000FFF738FF039B00EB8300D0F8803023F00E
:105ED000E04343F08043C0F88030631C92D001253A
