:10000000F8B10020A97B0100F7980200957B010060
:10001000957B0100957B0100957B0100957B01009C
:10002000000000000000000000000000517D010001
:10003000957B010000000000AD7C0100957B010074
:10004000657F0100657F0100657F0100657F01001C
:10005000657F0100657F0100657F0100657F01000C
:10006000657F0100657F0100657F0100657F0100FC
:10007000657F0100657F0100657F0100657F0100EC
:10025000657F01002BC50200657F0100657F0100FD
:10026000657F0100657F010015C50200657F010003
:10027000657F0100657F0100657F0100657F0100EA
:10028000657F0100657F0100657F0100657F0100DA
:10029000657F0100657F0100657F0100657F0100CA
:1002A000657F0100657F0100657F0100657F0100BA
:1002B000657F0100657F0100657F0100657F0100AA
:1002C000657F0100657F0100657F0100657F01009A
:1002D000657F0100657F0100657F0100657F01008A
:1002E000657F0100657F0100657F0100657F01007A
:1002F000657F0100657F0100657F0100657F01006A
:10030000657F0100657F0100657F0100657F010059
:10031000657F0100657F0100657F0100657F010049
:10032000657F0100657F0100657F0100657F010039
:10033000657F0100657F0100657F0100657F010029
:10034000657F0100657F0100657F0100657F010019
:10035000657F0100657F0100657F0100657F010009
:10036000657F0100657F0100657F0100657F0100F9
:10037000657F0100657F0100657F0100657F0100E9
:10038000657F0100657F0100657F0100657F0100D9
:10039000657F0100657F0100657F0100657F0100C9
:1003A000657F0100657F0100657F0100657F0100B9
:1003B000657F0100657F0100657F0100657F0100A9
:1003C000657F0100657F0100657F0100657F010099
:1003D000657F0100FFC40200657F0100657F0100A9
:1003E000657F0100657F0100657F0100657F010079
:1003F000657F0100657F0100657F0100657F010069
:10040000657F0100657F0100657F0100657F010058
:10041000657F0100657F0100657F0100657F010048
:10042000657F0100657F0100657F0100657F010038
:10043000657F0100657F0100657F0100657F010028
:10044000657F0100657F0100657F0100657F010018
:10045000657F0100657F0100657F0100657F010008
:10046000657F0100657F0100657F0100657F0100F8
:0C047000657F0100657F0100657F0100D1
:10048000064A074B02604FF41A725B78828008229A
:10049000C371002382710372704700BF41E4000002
:1004A000200E0020064A074B02604FF490725B7AE0
:1004B00082800822C371FF2382710372704700BFDC
:1004C00069DF0000200E0020F8B5C41D0028054695
:1004D00024F007040CBF0020204600F0E5FA071EB8
:1004E00002DA6FF00B00F8BD254EB1887088033139
:1004F000F3790330B27989B280B20BF07FFB002828
:10050000EFDB3C4473783178002D04F10304194487
:1005100024F0030400FB01F10CBF0020204600F092
:1005200047FC23180DB9002BDBDB717A184679B133
:100530000333002D728923F003040CBF00202046F2
:1005400000F0A8FC0028CCDB20440DB90028C8DB53
:10055000317A91B1737A83B1C41D002D24F0070460
:100560000CBF0020204603F0ADFB0028B9DB0DB125
:100570000020B8E72018B6D5B3E7002DF8D1B2E7D0
:10058000200E00201FB572B6194BDC68ECB9BFF322
:100590004F8F1849184BCA6802F4E0621343CB60CE
:1005A000BFF34F8F00BFFDE7B2FBF6F22B465D1C99
:1005B000002AF9D1DBB203F110056D4405F80C2CCB
:1005C0000A2233B901A8A047E1E7024600230A2620
:1005D000EDE7013BDBB203F110050DEB0506B0FBC7
:1005E000F2F502FB1500303006F80C0C2846E8E75F
:1005F000200E002000ED00E00400FA050A4B07B5CC
:10060000DA886846ADF800209A885B88ADF8042047
:10061000ADF8023001F05AFE18B1FC219C20FFF722
:10062000B1FF03B05DF804FB200E002038B505468D
:1006300040B309F0E7FE10B94FF0FF3038BD09F0C4
:100640003BFBB0F5FA7FF7D8104C1148E56000F09D
:10065000A7F9002323744FF4807323801B23638046
:10066000A38040F20323E3804FF4847323811F238C
:100670006381EFF3108472B600F0E2FC04B962B655
:100680000020DBE76FF01500D8E700BF200E002048
:10069000FD05000010B5002840D1234C237C032B1E
:1006A00039D059B1002A3CD00239052936D8DFE8C3
:1006B00001F0031227352A2D137863700020FFF70D
:1006C00003FF0028B7BF012302236FF00B00237440
:1006D000A8BF237410BD13791BB353790BB31188D2
:1006E000FB291ED853881B3B9BB2E02B19D81A2933
:1006F00017D913689288C4F802300C4B9A80DDE752
:1007000013786372DAE713886381D7E71388FF2BC6
:1007100007D82372D2E74FF0FF30DBE76FF02C00F1
:10072000D8E76FF01500D5E7200E0020220E00203C
:10073000F8B50D46064620B319B311F0070420D1D1
:10074000114F3B7C012B02D16FF00B00F8BD032B46
:1007500002D14FF0FF30F9E700F060F80028F8D040
:100760002846FFF7B1FE0028EEDB0DF0CEFE304646
:10077000214601F03FFEFFF741FF032320463B7473
:10078000E4E76FF01500E1E7200E002010B5064CFD
:10079000237C032B03D101F045FE02F0A1FD0BF0F9
:1007A00026FB0020207410BD200E002050B1074B06
:1007B00003F1140253F8041B934240F8041BF9D1CF
:1007C000002070476FF01500704700BF84AE030033
:1007D00008B501F0D9FD03490120BDE8084000F04B
:1007E0005BB900BFA504000008B501F0E1FD0349B5
:1007F0000020BDE8084000F04FB900BF81040000B0
:1008000002680020014B1A60704700BF340E0020C0
:10081000014B1B68184700BF340E0020024B1868BC
:10082000003818BF01207047340E00202DE9F7432F
:100830000446264E071D2548376002F069FD022850
:10084000054607D1214920460AF082FD284603B01B
:10085000BDE8F0830428F9D13378072B18D13E2066
:1008600000F04AF878B9F37801A93279684643EA8A
:100870000223ADF800300AF09BFF0028DBD05321A3
:100880000820FFF77FFE052000F076F80028EAD068
:10089000314620460AF094FDB0F5817F01D37221E4
:1008A000EEE70028C7D094F8008094F80290404604
:1008B00000F022F80028BED0B8F13E0FC6D148465D
:1008C00000F05AF80028C1D1B5E700BF380E00206B
:1008D000074B4FF0FF3141F6FF72C3E900120549A3
:1008E0000022C1E900221F21C3E90212704700BFA4
:1008F000400000207C0E00203F280CD801380B4B14
:10090000C0F3421200F01F0053F8223023FA00F027
:1009100000F001007047FF2806D04038044BC0F3B8
:10092000421200F01F00EFE7012070474000002056
:100930007C0E0020074B0146006849681A4603C236
:1009400040F48C221A6041F0107242F4FF625A6047
:10095000704700BF400000200246024B006851680B
:1009600003C370477C0E00200246024B00685168AA
:1009700003C3704748000020431EF428DBB21FBFAA
:10098000064A590903F01F0302EB81021DBF90685C
:10099000D84000F001000020704700BF4000002058
:1009A000014B1860704700BF840E002010B5FFF7A0
:1009B0008FFF0BF0DDFB034B04461B6803B1984728
:1009C000204610BD840E00200A8870B595B2C67C02
:1009D000C2F30E020488023602F118033444C35AEB
:1009E000A4B233442344013BB3FBF4F303FB0422DE
:1009F000438892B29342044B8BBF2B40AB431343CB
:100A00009BB20B8070BD00BF0080FFFF4A1E062A0C
:100A100008B50346084604D84FF4D1711520FFF7F6
:100A2000B1FD094A914202D940F2A311F6E711B98A
:100A300003B1196008BD2BB11B680022C3E9012175
:100A40001A1D1A600430F5E7FAFFFF7F10B5114B4D
:100A500000EB41041A786389B3FBF2F303FB022332
:100A6000013A1A44B2F5706F0279807828BF0023EA
:100A70001A440B18B2FBF0F100FB11215B1AB3FB17
:100A8000F0F100FB113313446FEA43436FEA534321
:100A9000638110BD880E0020024B03EB8003596078
:100AA000704700BF880E00202DE9F04F10F0070AB4
:100AB00085B0054604D040F261111720FFF762FDB2
:100AC000524F044607F10C06B146B04657F8043BB6
:100AD0008DF80BA03BB101A898479DF80A30082B70
:100AE00001D9E821E9E79DF80B1041BB05B1316060
:100AF0004F4506F10406E9D1002D6ED00022DFF843
:100B000010910227964689F8002058F827A0013F47
:100B1000BAF1000F54D09AF804609AF802C0FF2E80
:100B20005FD039460023481C37D19C44BCF1FF0FED
:100B30003ED90AB189F800E040F22711BDE79DF8DF
:100B40000AC04B1D60465A0004EB4303022838BF1D
:100B50000220441E40422344BDF808406444CCF1C6
:100B6000000C0340013C04EA0C04B4F5803F01D3BF
:100B7000F821A2E775B19A1A0120326091701480B1
:100B8000D0709DF80C00107101984FEA104C108144
:100B9000A2F806C004FB0134AAE758F8210028B1E6
:100BA00090F804B0B34504BF80781B180139BAE748
:100BB000DBB2E6458AF804303CBF5FFA8CFE0122C6
:100BC0007B1CA2D10AB189F800E0022640F6FF6A38
:100BD00058F82670B7B9013EFAD2601B05B0BDE8DF
:100BE000F08F0023E5E707EB410309F101093846DF
:100BF000A3F80AA0FFF72AFF5FFA89F1BB788B42BE
:100C0000F1D8E8E74FF00009F6E700BF8C0E0020AE
:100C1000880E002038B54FF6FF7302460380184B4C
:100C200003EB81031869A8B184780379B3FBF4F16D
:100C300004FB1133DBB2194600EB4105B5F90A504C
:100C4000002D0EDB0131B1FBF4F504FB1511C9B227
:100C50008B42F1D1002038BD6381BDE838400AF0F5
:100C6000A9BF00EB41046389C3F30E031380C2786C
:100C7000002AF1D14FF4D5711720FFF783FC00BF94
:100C8000880E00201C4B03EB810370B51C690546E0
:100C900044B3030404D54FF4DC711720FFF772FC52
:100CA000014620460AF069FFFF28014604D020468D
:100CB000BDE870400AF07EBFA078B5FBF0F300FB02
:100CC0001353DBB219460A1D04EB4206B6F9026063
:100CD000002E09DB0131B1FBF0F200FB1211C9B2A9
:100CE0008B42F0D1002070BD8B4201D00023E37015
:100CF00004EB42025580DAE7880E0020094B03EB33
:100D00008103014610B51C6920460AF036FFFF2812
:100D1000014604D02046BDE810400AF04BBF002039
:100D200010BD00BF880E0020F8B5104B074603EB3E
:100D3000810301461C6920460AF01FFFFF28054673
:100D400011D0E288238953EA024606D001462046A4
:100D50000AF030FF01463846B04720462946FFF7E3
:100D600075FE0020F8BD0520FCE700BF880E0020BE
:100D700038B50E4B0446827903EB8203186908B933
:100D8000052038BD8278E1799142F9D24B1CE3719C
:100D900000EB41035D89B3F90A30002BF3DBA5803A
:100DA0000AF008FF20600020EBE700BF880E00205B
:100DB00070B5044610F003000E4603D04E211820F3
:100DC000FFF7E0FBFFF722FE054624B1034831465A
:100DD0000460FFF71BFE284670BD00BFA40E002074
:100DE0002DE9F14FDFF870B01E4607460D46DBF8DF
:100DF000003090469DF828A09DF82C901BB96021EA
:100E00001820FFF7BFFB5246092140460AF035FD86
:100E10004A4684B2092130460AF02FFD81B2DBF840
:100E2000000021440AF07DFE386018B9286001B046
:100E3000BDE8F08F04445346414609222C603868CF
:100E40000AF0DEFC4B4609223146286801B0BDE8B5
:100E5000F04F0AF0D5BC00BFA40E002070B50E46BE
:100E600004460AF01DFD054630460AF019FD044B04
:100E70002A1821461868BDE870400AF077BE00BF06
:100E8000A40E0020024B186808B10AF03EBE70475D
:100E9000A40E00201F2AF8B5044613460ED892006F
:100EA000033222F00303B3F5803F2DD2184DACB1CD
:100EB000A00710D05F210920FFF764FBFF2B4FEA4A
:100EC000420204D9FF339A42A8BF1A46E8E77C2AB7
:100ED000B8BF7C22E4E729706C602B8122F003020A
:100EE00028230127120403FB01F06B680025120C74
:100EF000EEB2B14200D8F8BD14B126181F705E6082
:100F0000104401352833F3E74FF0FF30F3E700BF1B
:100F1000A80E0020154A002170B553681578C8B294
:100F2000854203D8AB210920FFF72CFB1C4618464D
:100F3000013114F8286B0EB92346F0E700219970AF
:100F400001241289996103F126055C709208D96128
:100F500003F11E04596824F8022FA54243F8041F28
:100F60001144F8D100234361037070BDA80E002026
:100F70004B782DE9F04106460C4602F0040702F0DA
:100F8000FB05E3B1A5BBFF23A3707B0804EB570768
:100F90003A7D032A02D1022D18BF0133E218012144
:100FA000117503F10C01002204EB830324F81120D6
:100FB0005B68A27030463360B280BDE8F081002DDE
:100FC000E1D1012301F11E028D6120464B7004F135
:100FD000260C1A4BCD611B8949689B0822F8023FF9
:100FE000944540F8041F1944F8D100236361CAE70F
:100FF000D1F8048014220021A01861700DF026FDA4
:101000000E4B1B89B3F5FF7F0FD25A089B1A9BB278
:1010100008EB0301C4F804802384A1606284C4F84F
:101020000C80A3842161E284ADE7B3F5EE6F4FF04D
:10103000FF02EBD940F27263EAE700BFA80E00207E
:101040001F4B4FF0FF3000211A6801235360C2F894
:101050000803C2F80015C2F804351A4A1268536032
:10106000C2F80803C2F8001540F6FE71164A174888
:10107000C2F80815B0F90020002A0CDB510902F073
:101080001F02934001F12002114941F82230BFF3C1
:101090004F8FBFF36F8FB0F90030002B09DB5A0977
:1010A000012103F01F03994002F16003084A42F84E
:1010B0002310054B40F6FE72C3F80825704700BFA9
:1010C0008816002084160020002008509C1600205E
:1010D00000E100E00A460648192302F8033BC36812
:1010E000C1F803300369536043699360704700BFE0
:1010F000B80E0020024B5A8C02435A845B6A184790
:10110000B80E0020014B00215B6A1847B80E002082
:1011100010B5154C05F090FE05F060FA208DFFF734
:10112000F1FF237E63B12246104904F1190052F801
:101130000C3BE36063685360A36893600CF083F832
:101140000B4B228D93E8030002F0ECFD236B188813
:1011500002F06EFDA36B94F8341094F835009847B4
:10116000002384F83C3010BDB80E0020D5100000DC
:10117000E40E0020034B93F83C300BB1FFF7C8BFDF
:10118000704700BFB80E002070B51D4C0646256B99
:10119000636C95F88C20236494F8483095F86910B6
:1011A00003EB82002EB9FF2803D195F868308B42FB
:1011B00001D005F0F5FC95F88C30D3B1E06C05F06A
:1011C000F3FE0123E16C84F87030206CD5E93A23FA
:1011D000C4E9182305F086F916B9304605F02CFF4E
:1011E00095F86810002005F06FFF022384F83C306A
:1011F00070BD206C05F0D8FE05F0F0F9ECE700BFFB
:10120000B80E002008B5094B93F83C20022A04D000
:1012100040F24F212720FFF7B5F9DA7A42F00102B8
:10122000DA72BDE80840FFF773BF00BFB80E0020B8
:1012300003280B4B10B5044605D19A6FD278022AC9
:1012400001D1002010BDD86F0AF0A9FB0028F9D108
:10125000032CF6D001F0A8FA80F00100C0B2F1E74B
:10126000B80E00202DE9F043474C85B0054688466E
:1012700094F83C30012BDFB204D040F20451272017
:10128000FFF780F9266B02A8A16F0AF0B2FD96F86D
:101290007C309DF808903BB10021042086F87C103A
:1012A000FFF728FF86F87E70B9F1030F25D0BDF84F
:1012B0000C30002B18BF022796F88C3086F882700D
:1012C000ABB1236B012294F8487084F87020D6E902
:1012D0003A01C4E9180193F869000AF0A7FD002259
:1012E00003462A49009202203A4605F03BF86DB1C8
:1012F00005B0BDE8F043FFF70BBF96F882301BB98D
:10130000A16F0220FFF7F6FE0327D5E7B8F1000F23
:10131000EED0D4F88030284698470028E8D094F8DA
:101320003430002BE4D194F8843023B194F8850054
:10133000FFF77EFF0546606C0BF0FAFED4F88830AC
:10134000B3B9B4F88C30B3FA83F35B09628C9107BC
:1013500010D5A26F137803F00303032BC8D1D37801
:10136000022BC5D1002005B0BDE8F043FFF70CBF4C
:101370000123EBE7002ABBD1012814BF002303F0AF
:1013800001032B43EED1B3E7B80E0020080F002075
:1013900010B5094CD4F8883023B940F2F641272023
:1013A000FFF7F0F8B4F88C201846216C033209F0EE
:1013B000D1F9206410BD00BFB80E0020064B10B557
:1013C00093F83C2002F0FF0422B91C7602F0A2FC44
:1013D000204610BD0C24FBE7B80E00200A4B0B4A38
:1013E00070B506460D461A60FFF7E8FF18B1F42104
:1013F0002720FFF7C7F8064C012104F18E000BF0FF
:1014000087FE6664E56470BD880000201C1C000037
:10141000B80E0020024B012283F89120704700BFD4
:10142000B80E0020F0B585B0754C02AE0A9F86E874
:10143000030094F83C1001F0FF0511B90AB103B1A3
:1014400027B940F283112720FFF79CF896E80300A4
:1014500004F12C0C84F8915084F8345084F89250A4
:1014600084F8355084F8935084F894506584258529
:10147000C4F880306262A7638CE80300256B05F036
:10148000C1FB05F0ABF895F9700005F5807705F024
:1014900015FC6E6AE86905F017FC304605F076FD2C
:1014A00095F89C0005F01AFC04F150060CF07FFA48
:1014B00095F8692000F17601012005F0A9FC514B57
:1014C000186805F069FD2B69E3676B69C4F898300B
:1014D00005F1F0031868083353F8041C3246BB4288
:1014E00003C21646F6D15968474A236BD5F8000166
:1014F00093F8686003C293F88620A2F125010129C0
:1015000003D993F8871025295DD193F83E322BB18A
:10151000012E03D0012B0CBF0126022605F1300756
:10152000314638460BF01FFF31460BF045FCAB8FC0
:1015300095F86910834228BF0346384684F89C30EA
:101540000BF0FAFE95F8691095F88C700429B5F83F
:10155000446008BF03210BF02FFC0FB9043080B2A8
:10156000864295F88C3028BF0646F6B284F89D6016
:1015700084F8486093B1012395F8690084F87030CD
:10158000D5E93A23C4E918230AF050FC00220346A7
:101590001E4900920220324604F0E4FE0120FFF7CB
:1015A000F3FD002323606360A360B5F8803063809F
:1015B0002B88238095F89C302371EB6E0BB10122B0
:1015C0001A6005B0F0BD203A012A0DD823290DD0AC
:1015D00093F8263113F0010202D19B079ED5022217
:1015E000012E18BF164699E7232905D193F8262125
:1015F00093F861301340EDE7032E08BF04268DE712
:10160000B80E002088000020200F0020080F0020C6
:1016100008B50C4B93F83C201AB9BDE80840FFF719
:1016200077BD93F83C20022A04D040F231212720D4
:10163000FEF7A8FF1B6BD3F8B001BDE8084005F02A
:10164000CFBC00BFB80E0020014B1876704700BF1A
:10165000B80E0020014B93F893007047B80E00209D
:10166000024B93F82900C0F3C0007047B80E002069
:10167000014B93F892007047B80E00202DE9F0431B
:10168000314D85B004460F4602A8296C2E6B0AF036
:10169000B0FB14F00109BDF80C8004F0020428D05E
:1016A000002385F89E3094B1FFF772FE0DF102021F
:1016B00001A9D5F898000AF01EFA01980AF001FA7B
:1016C000012238604146D5F898000AF0A9F9B9F12D
:1016D000000F0BD0D6E93A32013342F10002C6E9DD
:1016E0003A3296F88430013386F8843005B0BDE88C
:1016F000F08395F89E30032B20D801A252F823F0F6
:10170000A7160000111700002B1700002B17000070
:10171000002CEBD0FFF73CFE00224146D5F89800A4
:1017200005B0BDE8F0430AF07BB9002CDED0D5F857
:10173000980005B0BDE8F0430AF0D9B940F2A241E3
:101740002720FEF71FFF00BFB80E00202DE9F04F45
:101750000023A94C89B080468946276BCDE9043324
:1017600094F83C30022B04D040F28B512720FEF736
:1017700009FF216C06A80AF03CFB97F88C30B8F101
:10178000000F00F027819DF819B0BDF81C60002BF8
:1017900039D004F031FFB0BB6EB197F8843003F05C
:1017A00001035B450BD1012384F83530FFF7B0FC12
:1017B00009B0BDE8F08FA4F88C60002006E0A4F822
:1017C0008C603146D4F898000AF00AF9238D9DF810
:1017D0001A2043F40073C4F88800238597F88330F7
:1017E00003F001039A4263D0256B95F88230002BF9
:1017F0003DD0022B13D104A9E06F0AF09AF838B952
:1018000040F23B41B2E7A4F88C60002ED5D0D8E777
:10181000D5E93832013342F10002C5E938320021FE
:1018200095F87E3085F8821023B1102085F87E105F
:10183000FFF760FC95F87D30A3B14FF0000A85F802
:101840007DA000F09BFF10B940F252418EE7514657
:101850000820FFF74FFCD5E93832013342F100028E
:10186000C5E9383295F88330013385F88330238D0C
:101870004FF0000A43F40063238597F8843003F0A7
:1018800001035B4544D19DF81830256B022B11D81C
:10189000EBB995F88430013385F88430002E37D0C9
:1018A000D5E93A32013342F10002C5E93A322FE07C
:1018B000C246E2E7032BECD1238D0120216C43F4D7
:1018C000805385F87C002385FFF714FCE1E7002EA8
:1018D000DFD0238D95F88C5043F48053238505F099
:1018E00011F9042894F89D3006D1002D0CBF1F2259
:1018F0001B22934228BF1346B34261D3D4F88830E9
:1019000033B194F89130002B73D02020FFF7FAFB0D
:10191000002697F88B308BB1002597F86800D7E93F
:10192000382384F87050C4E918230AF07FFAFB22A8
:10193000034632490420009504F014FDB9F1000F6C
:101940005ED1638C94F89210180708D5A26F1378B3
:1019500003F00303032B02D1D378022B50D00129CB
:101960004ED8D4F8803001209847002848D094F809
:101970003430002B44D11EB105A90120FFF77EFEB3
:10198000256B002395F88C208DF80D3094F84830A5
:1019900095F8681003EB8203FF2B03D195F86930AB
:1019A0008B4202D0FF2005F0FBF895F88230032B24
:1019B00000F21B81DFE813F07B00A600000111019B
:1019C00094F83430012043F0100384F8343007F0E9
:1019D00099F99DE70BB104F023FE94F892300026AC
:1019E0000133B24684F89230238D43F4806323851B
:1019F0008FE746468DE700BFB80E0020080F002095
:101A000005F06EFB002E4DD14FF00109238D5A06D3
:101A100006D44020FFF776FB238D43F04003238557
:101A2000BAF1000F0DD0B4F80720B4F80530134315
:101A3000B7F8802013431EBFB4F809300133A4F86F
:101A40000930B8F1000F00F0DC80B4F80530013344
:101A5000A4F80530002384F892306D4802F0D6F8DF
:101A6000049830B10AF02DF8216B0022027201F0C7
:101A700093FC059B33B1216B00221A720C2205984E
:101A800001F058FCB9F1000F7FF490AE238D1B06D6
:101A90003FF58EAE8020FFF735FB238D43F08003AA
:101AA000238585E605A90320FFF7E8FDACE794F858
:101AB0009C305848ADF80E30A5F8583000F04EFE76
:101AC00028B1012385F87D3084F894301CE00DF1B5
:101AD0000D020DF10E01E06F09F009FFA06788B15A
:101AE00095F8C73073B99DF80D302BB903800121EB
:101AF0008370A06F0BF00CFBA36FBDF80E205A7023
:101B00000123E1E7444BA367D4F878B095F883202C
:101B10009BF80000D20000F0F30300F0030002F095
:101B20000802134395F88420920002F00402134344
:101B30008BF80030FFF77CFB9BF8003023F010039C
:101B400043EA00138BF8003095F88B30A06F002B20
:101B50004ED04378002B4BD0E06C05F025FA0022E4
:101B6000D5E9380184F87020C4E91801E16CA06F50
:101B700005F0F4FB18B9A16FE06C04F047FC95F890
:101B800069100120012505F09FFAA06F84F8935099
:101B90000BF0CEFAA36F84F884001B7884F83C50D5
:101BA00003F0030384F88530002E3FF42FAF05A91E
:101BB0000220FFF763FD29E7B5F858300DF10D025B
:101BC0000DF10E01E06FADF80E3009F090FEA06748
:101BD000002895D140F2F121C8E50E4800F0BEFD85
:101BE00000288DD140F2FB21C0E540F20931BDE56E
:101BF00005F0DAF904F0F2FC0021A06F0CF0ACFC67
:101C0000BDE7B4F807300133A4F8073025E700BF7B
:101C1000E40E0020300F0020460F002005120000C7
:101C20004D1700006512000075110000304BF0B533
:101C30005A8885B0B0F85C700C46B0F85A6097428C
:101C40009D8828BF1746964228BF16461B2E2ED0C9
:101C5000B5F5A47F2DD040F6480301A99D4228BFC9
:101C60001D460AF048F9BDF80A30BB4228BF3B4682
:101C7000E380BDF80C30AB4228BF2B462381BDF872
:101C80000630B34228BF33466380BDF80830AB420C
:101C900028BF2B46A380FF232370E3881B3B9BB206
:101CA000E02B08D940F2F5613920FEF76BFC1B2FC1
:101CB000CED105B0F0BD63881B3B9BB2E02B02D9AF
:101CC00040F2F761F0E72389A3F5A4739BB2B3F563
:101CD000E06F02D940F2F961E6E7A388A3F5A473A7
:101CE0009BB2B3F5E06FE4D940F2FB61DCE700BFE3
:101CF000580F002010B501210020FEF7FFFF044619
:101D000070B90121FEF7BEFF044620B940F29331BD
:101D10003920FEF737FC034B93F906100CF0F6F868
:101D2000204610BD580F002008B50AF061FF00F0F2
:101D3000DFFE00F0A5FB0BF05EFA01F0D5FF01F02D
:101D4000DDF80022084B1B214FF4A4701A60074BEA
:101D500098801A8059800648064B186099805A74FA
:101D60005A829A829A7508BD8C000020580F002074
:101D700003021B0084130020044B41F64C52C3E9BC
:101D800002221B221A74FFF7CFBF00BF841300206A
:101D900073B5234D0446AB680363224B83610BF09C
:101DA00070FF064600F05CFB8306297C53BF1B23B3
:101DB0006B88AA881A46A4F85A301B4BA4F85C20FA
:101DC0001B6884F8381066871BB194F9701020885E
:101DD0009847164E204631460BF00FF801236A88CB
:101DE00004F110006978E3850332AB88019192B267
:101DF00016F8121C033300919BB204F11401FEF794
:101E0000EFFF236923B940F2CC613920FEF7BAFB1A
:101E1000636913B940F2CD61F7E7002002B070BDED
:101E20008413002000093D0090000020961300203C
:101E3000F7B504460D460CF09CF800286DD02046FE
:101E40000CF073F938B1B5F80130013B7F2B02D9A2
:101E5000122003B0F0BD20460CF06BF908B90C203D
:101E6000F7E720460CF003F80028F8D120460CF0E4
:101E70003EF806460028F2D1204603F059F8002823
:101E8000E6D042F21073B5F80170E97820465F435E
:101E90000CF037F920460CF040F9014648B93A46B3
:101EA000204602F053FAB0B341F6A5413920FEF7BF
:101EB00069FB31460DF10600FEF7ACFE054608B998
:101EC0000D20C6E731460AF0EFFEBDF80630204689
:101ED00029462B800CF037F920460CF030F988B9F0
:101EE000216A20460CF02DF901462846FFF750FFE5
:101EF0003A462946204602F029FA024620B141F628
:101F0000C841D3E70121F0E7054B9B681BB105F5FC
:101F10008D712846984700209BE7422099E700BF33
:101F2000580F0020024B1B6803B118470C20704764
:101F30008C000020034B5A8802801B78837000209D
:101F4000704700BF8413002037B5837805461A2BED
:101F500008D8042B04D9144A22FA03F3DB0705D46A
:101F600012241AE0292B01D03B2BF9D12888B0F597
:101F7000706FF5D269460AF08AFE88B9019B93F822
:101F8000182102F0FF046AB9AA7883F81921FF2208
:101F900083F8182168460BF009F9204603B030BDDC
:101FA0000224FAE70C24F8E7200038040188A1F1A4
:101FB0001B039BB2E02B0CD8428844F24810A2F5D8
:101FC000A4739BB2834204D8034B002059809A80AB
:101FD00070471220704700BF580F0020034B5A88EB
:101FE0009B88028043800020704700BF580F00206C
:101FF00038B50278447802F0010302F0020254EA94
:10200000030101D1112038BDBAB98578002DF9D06E
:10201000002B18BF002400E01D46204609F016FFE3
:102020000028EFD0284609F011FF0028EAD0054B20
:1020300000209C74DD749882E5E7002BECD000242E
:102040002546EAE78413002013B5008869460AF0A4
:102050001EFE18B10224204602B010BD019A92F86B
:10206000DC31DBB292F8A820002AF3D113F0FB0F89
:10207000F0D0019890F82A310BB13A24EBE790F8B0
:10208000D23003F0FF04002BF7D190F8C9309B0742
:1020900006D1FF2380F82A3168460BF087F8DAE78B
:1020A0000249CA300BF0CFF8D5E700BF21D90000B4
:1020B000F7B5077805460C46EF2F0FD890F90120A9
:1020C0004378002A0ADB8278900707D113F01000CA
:1020D0001DD1990603F0030202D51AB1122442E081
:1020E000032AFBD01E07F9D42979EA78EE7942EA6F
:1020F0000122697942EA0142A97941EA06212E7A50
:1021000041EA06418A42E9D81F2A0FD8E6E713F0D0
:10211000600FE3D103F00702052A05D003F00F0199
:102120000D22CA40D107D9D51A07DDD56A7A013AFE
:10213000062AD3D8AA7A032AD0D813F0040102D1F0
:10214000023A012A03D8EA7A012AC7D811B9AA7C2F
:10215000032AC3D82A7D48B1012ABFD12A7E012A89
:10216000BCD830B91124204603B0F0BD022AF5D105
:10217000B4E7DB0712D46B782A7D03F01803082B31
:1021800011D1022AEED101213846FEF7B7FD0646ED
:1021900078B10BF06CFEB8B10C24E4E700F024F940
:1021A0000028E8D1DEE7022AEDD02B7F002BEAD011
:1021B000D8E701213846FEF765FD064640B3154BCA
:1021C00093F906100BF0A2FE30460BF0A3FF294650
:1021D0002070E87430460BF0E8FEEB7E0446002BDE
:1021E000C1D00028BFD10246316B6846FEF7C0FE61
:1021F0002246306B012109F048FD316B684604220C
:10220000FEF7B6FE22462146306B09F03EFDAAE7F6
:102210000724A8E7580F002030B502798BB0034699
:10222000042A4FD84088B0F5804F4BD82649002467
:102230008D5C1144ADF800404A798DF8084042F0B9
:1022400010028DF8244042EA45028D7AC97B42EAA9
:10225000850242EAC102694602F01F028DF80020A1
:10226000BDF80020ADF809201A888DF80E00000A8C
:102270008DF80B20120A8DF80D408DF80C208DF88A
:102280000F008DF810405A7BD3F807008DF811200D
:102290005A79059002A88DF812209A798DF81320AA
:1022A000B3F80B209B7BADF818208DF81A307F23F4
:1022B0008DF81B304FF00113CDE90734FFF7F8FE1E
:1022C0000BB030BD1220FBE7F85A0300027803463A
:1022D00072B1427862B142881A2A09D982881A2AD0
:1022E00006D90068034A106000209B8893807047DD
:1022F000122070478413002002680020014B9A606E
:10230000704700BF841300200378A3F10A02112A4A
:102310009BBF024A002012201374704784130020D0
:1023200008B5052000F090F803F012FF014B024AB7
:102330009A6008BD580F00202D1C000008B502F05F
:10234000DFFD02F0EFF80248BDE8084002F0C2BD30
:10235000640F00200B4A012310B5144682F80231A5
:1023600002F0D6FD0CF08FF80AF040FC04F20311E5
:102370002046FFF733F8002009F024FCBDE81040A8
:1023800000F0BEBF640F002010B5064C064904F5EE
:1023900002700AF0EBFA04F503700449BDE810403E
:1023A0000AF0E4BA640F0020940000209C00002092
:1023B00010B5094C094904F502700AF0D7FA04F582
:1023C000037007490AF0D2FA04F504700549BDE824
:1023D00010400AF0CBBA00BF640F0020A400002018
:1023E000AC000020B4000020014B93F802017047BC
:1023F000640F002010B5074C00F05EFFD4F808020F
:102400000AF0ACFAFFF7B8FC01F08CF8012384F86D
:10241000143210BD640F0020014B93F81402704772
:10242000640F002010B5074CD4F80C020AF096FA9D
:10243000D4F810020AF092FAFFF776FC002384F831
:10244000143210BD640F0020C208044900F00700D8
:1024500001238340885C03438B5470475000002065
:10246000014BD3E90001704750000020034B18686E
:10247000C0F30020400040F00100704750000020F1
:1024800008B507F019FC0023074A32F823108142EF
:1024900005D302EB83029378044A137008BD01331D
:1024A0000C2BF2D10023F7E70C5B0300791100201D
:1024B00010B54468238884F86711A4F8683194F84B
:1024C0006830012B06D0022B04D04FF46171062036
:1024D000FEF758F884F86A3194F86930012B01D07E
:1024E000022BF2D184F86B3104F5AF7003490AF086
:1024F000AAFE002384F8243110BD00BFE7C9000004
:1025000040680749038800F25110A0F8093010F81C
:10251000F13CC37210F8F03C03730AF08EBE00BFAA
:10252000FDC900002DE9F04389460979456885B069
:1025300099F8058001F00701044695F8866008F0D7
:1025400007084B1E08F1FF320B4002EA0802134352
:1025500095F88720232A3BD105F18707FBB9404630
:102560000AF08DFA00283DD095F86830984239D0AD
:1025700095F8262118EA020F11D0212E32D095F8B5
:10258000612018EA020F2DD1013B01384D4ADBB220
:10259000C0B2032B105C20D8D35C834222D995F8BB
:1025A0002431012B53D11E212046FFF781FF212E1C
:1025B00051D16368182283F80921092283F8862003
:1025C00093F8C230002B3ED14FF43171AE2007E0BA
:1025D000212E75D105F18607C0E74FF40F71062053
:1025E000FDF7D0FF08460AF04AFA38B195F869308D
:1025F000834203D095F827311942D0D0B9F806604C
:1026000003AB28464246009333460AF045FA636816
:10261000054678BB93F82421012A28D1014620469B
:10262000FFF746FF3D70636803F18702974202D1CE
:10263000002283F88720636803F1870297423BD129
:1026400020460AF01CFF002005B0BDE8F0830023FF
:1026500085F82431ABE7002320463B700AF00FFFDA
:102660001821204605B0BDE8F0430AF030BF83F8DA
:102670002401D8E7B3F88020A3F83C62013EB61AE3
:1026800047F6FD72B6B2964206D92822204683F854
:10269000A92001F0BFF8CEE793F887200D2A02D0D9
:1026A0000A3A012A01D82A22F0E7BDF80C20A3F843
:1026B0003E2225233B70BEE7002283F8C220C2E7FA
:1026C0000220C1E73C5B0300044B002283F8222078
:1026D0004FF6FF729A84DA841A8570477A110020C7
:1026E000054B9A8C824201BF002283F822204FF6CC
:1026F000FF729A84704700BF7A110020014BD88482
:10270000704700BF7A110020084B4FF6FF72998C7A
:10271000914206D193F82220012A04D003600120BF
:102720007047002303600020704700BF7A1100202B
:10273000064B93F82220012A1BBF0120DA8C0020CF
:1027400083F8220018BF9A84704700BF7A110020D6
:10275000014B1885704700BF7A110020064B0246D6
:10276000198D988C884205D193F8220018B1012068
:1027700013607047002070477A110020094B998C34
:102780001A8D914201D0002070474FF6FF729A8453
:1027900093F82220002AF6D00022012083F822207C
:1027A000704700BF7A110020054B998C1A8D914219
:1027B00003BF93F82200B0FA80F04009012070476F
:1027C0007A11002050B90A4A0120134603F8010B80
:1027D0000868C2F801008A889A807047012805D1EC
:1027E000034B0A68D8719A608A889A81704700BF43
:1027F000A411002050B90B4B187888B1D3F80120F0
:10280000B3F805300A6001208B807047012806D19B
:10281000044BD87920B19A689B890A60F3E70020BD
:10282000704700BFA411002010B9044B18787047FE
:10283000012806BF014BD87900207047A411002061
:10284000F7B58A8800238DF80600ADF804200868E3
:102850000B4A8DF807300146147802F5A872019DE5
:10286000D8B2844201D8082007E052F8087F01332B
:102870005668AE4208BF8F42F2D103B0F0BD00BF30
:10288000B8110020084B0146002230B55C7803F2F5
:102890000113D0B2844201D8082004E013F8015F8C
:1028A00001328D42F5D130BDB8110020F8B52D4C64
:1028B00063782218013B92F80251DBB283426370C5
:1028C00030D01A010101961C8F1C2644274406F1C2
:1028D000100C56F804EB664547F804EBF9D1823248
:1028E00082312244214402F1100652F8047BB242A4
:1028F00041F8047BF9D1E118221891F8026182F8BD
:10290000026106267343704303F5857300F58570F5
:10291000E618E35827182350B388BB8091F83A3162
:1029200082F83A312846FFF7ADFF082818D12378FE
:10293000013BDBB29D42237012D02B3305F12B02F9
:1029400004EBC30304EBC20293E8030082E8030034
:102950002078FFF797FF08281CBF241884F802513D
:10296000F8BD00BFB8110020F0B5254D89B095F82D
:10297000984105F299116846224607F0EBFE214680
:1029800068460AF054F90446B8B300EB400102A8C7
:10299000C9B2FDF73DFF631E95F8A1610124DBB2CA
:1029A00095F8981105E0721CB2FBF1F001FB1022C2
:1029B000D6B206F120020DEB020010F8202C002AFE
:1029C000F1D103EB430100F8204C06EB4602203125
:1029D0002A44694411F8187C82F8A27111F8177C16
:1029E00011F8161C82F8A37182F8A411013BAA19F0
:1029F000DBB282F89941FF2BD2D109B0F0BD00BF04
:102A0000B811002070B5064688B00C46002A4ED09A
:102A1000294A92F8A131D01890F8991119B9FF21DB
:102A20002820FDF7AFFD03EB43010133114491F87A
:102A3000A251E57091F8A35191F8A411257161712B
:102A4000002180F8991192F89811B3FBF1F001FB85
:102A5000103382F8A13192F8C23123B9174902F537
:102A6000DD700AF0EDFB65790D220021684605F066
:102A70003F0545F0400565710BF0E8FFE37804AAD7
:102A800069468DF80F30304623798DF80D508DF85A
:102A90000E3004230BF044FF9DF81F3023709DF887
:102AA0001E3063709DF81D30A37008B070BD032107
:102AB0006018FDF7ADFED6E7B811002069290000C7
:102AC000044B5A78824286BF1B1893F84A010020B3
:102AD000704700BFB8110020044B5A78824286BF6D
:102AE0001B1893F842010020704700BFB811002066
:102AF000064B00224FF461711A8083F8C32183F8DA
:102B0000C421A3F8C61183F8C2217047B811002070
:102B10002DE9F0478246894617469846FFF790FE12
:102B200008280546064603D0FFF7ACFE082860D10A
:102B3000324C6378072B5ED8082D15D12678731C8C
:102B4000072E237003D96C212820FDF71BFD06F109
:102B50002B02D9F8000004EBC20344F83200B9F8A4
:102B6000042083F806A09A80657807F110026B1C98
:102B7000290163704B1C234412F8010DBA4203F87B
:102B8000010FF9D1813108F11003214413F8012D0F
:102B9000984501F8012FF9D12544102140460AF04B
:102BA000CFF8102185F8420138460AF0C9F885F8B7
:102BB00002616678002385F84A013146104885F89D
:102BC0003A310AF034F80128054607D831460D4855
:102BD0000AF02DF8002818BF0135EDB284F898519D
:102BE0000025284684F8A151FFF7BEFE2846BDE81F
:102BF000F0871220FBE70720F9E700BFB81100209B
:102C0000FA12002002130020064B10B55878013844
:102C100040B2002800DA10BDC4B22046FFF746FEDD
:102C2000601EF5E7B8110020014B83F8C30170471F
:102C3000B8110020014B93F8C3017047B811002070
:102C4000431E4AF2B7129BB293429DBF024BA3F8B8
:102C5000C601012000207047B8110020014BB3F8D5
:102C6000C6017047B81100200A4B30B55C78844229
:102C70000ED9184490F802012B3003EBC004A5795B
:102C80000D7053F8300010600120A388938030BD90
:102C90000020FCE7B81100200246074810B590F864
:102CA000C34124B1417821B1023003F077FA2046C4
:102CB00010BD0C46FBE700BFB81100202DE9F74F0F
:102CC0002F4C9A46804689466378834256D923180A
:102CD00093F8425185F00105F9B193F84A31E3B90F
:102CE00045F002070135BAF1000F18D1FA070AD5ED
:102CF000062104EB0810524601FB0841823001F521
:102D00008571FFF77FFEBB0734D504EB08105246F0
:102D100049460230FFF776FE2CE02F46E3E794F8B1
:102D2000A1614FF0010B002DE0D0A31993F8991188
:102D3000019399B90092DAB100F0C4FB019B06EB54
:102D40004601009A4FEA102C83F899B1214481F88A
:102D5000A201000C81F8A3C181F8A401013694F806
:102D60009831013DB6FBF3F103FB1166F6B2DAE7E9
:102D700047F00407384603B0BDE8F08F0027F9E7B5
:102D8000B8110020074B5A78824209D91A1892F8D4
:102D900042212AB9062202FB003000F585707047F7
:102DA00000207047B8110020064B5A78824281BF3C
:102DB0001B1893F83A01B0FA80F0400998BF002040
:102DC000704700BFB8110020F8B50E46074606212F
:102DD0001546304609F0B4FF044670B10C4B002292
:102DE000587803F23913D1B2884202D80124204620
:102DF000F8BD013203F8015FF5E73146384609F0C6
:102E000032FF0828F3D0024B034483F83A51EDE730
:102E1000B811002030B5002442F21075A0F84040EF
:102E2000B0F844404C43B4FBF2F4A0F84440541EC4
:102E300005FB0343B3FBF2F3A0F84230084BB3FBAE
:102E4000F2F30133A0F84830838F05FB0344436B52
:102E50005943B4FBF2F4B1FBF2F18463416330BD3A
:102E6000005A6202034B80F870101B680BB1008897
:102E700018477047BC0000200B2808B504D940F261
:102E8000C7112920FDF77EFB014B33F8100008BD68
:102E9000405B0300074B93F900301844142804DC0E
:102EA00010F17F0F03DB40B27047142070476FF0C2
:102EB0007E007047801300207F2307B50DF10700C7
:102EC0008DF8073004F0F4F803469DF9070053B17C
:102ED000094B5B785B425BB21844142806DC10F1A6
:102EE0007F0F05DB40B203B05DF804FB1420FAE766
:102EF0006FF07E00F7E700BF80130020024B002236
:102F00001A705A70704700BF801300200346407843
:102F100098B1DB783F2B05D8084AD35C1B1A58427E
:102F20005841704703F10C02D2B2042A04D8034A74
:102F3000134413F8B43CF1E701207047585B0300D9
:102F40003F2908B5C17003D80B4B5B5C437008BDCB
:102F500001F10C03DBB2042B04D8074B0B4413F82C
:102F6000B43CF3E7FF2904D040F23A412A20FDF7B0
:102F700009FB0123EAE700BF585B03002DE9F34793
:102F8000894669461546984609F081FE044620B9EF
:102F9000019E35B9012386F88D30012002B0BDE8CD
:102FA000F08737692946384608F04BFC014600286F
:102FB000F4D0164B5B88AB4225D3384608F07DFD34
:102FC00096F88D3082460480002B84700CBF4946F1
:102FD00002210AF09DF841462A460AF1030007F053
:102FE000B9FB2946384608F067FC18B97E212B202A
:102FF000FDF7C8FA68460AF0D9F8019BA3F8A24188
:1030000086F88D40C9E72046C8E700BF841300203A
:10301000024B987DC04300F00100704784130020EC
:10302000044B987DC0F3400080F0010000F00100E7
:10303000704700BF8413002083230B70014B1B7863
:10304000CB7070479C1300202DE9F84FD0F8048016
:103050000D46D8F81460304608F021FD044618B932
:10306000FF211020FDF78EFA0146304608F025FDBD
:10307000B4F800B082461FFA8BF9B9F1000F02D103
:1030800040F20311EDE71E4BC71C1B688BB9B8F863
:103090000030A5F806B0AB8000236B729AF80030C0
:1030A00003F00303012B0FD0022B0DD040F21D11B2
:1030B000D7E74A463946B8F8000098470446002842
:1030C000E5D12046BDE8F88F30462B7208F0FBFCB6
:1030D000044610B94FF49371C3E7B9F1FB0F02D95D
:1030E00040F23511BDE7286810B94FF49B71B8E77D
:1030F0004A46394607F02EFB304608F03FFCE0E731
:10310000C00000202DE9F3478246894605270026A6
:10311000DFF84881D9F8103053B11B7A1BB98021F0
:103120001020FDF72FFAD9F81040B4B9002071E053
:10313000D9F80440237A012BF8D0EFF3108372B64C
:10314000D9F804201268C9F8042003B962B6C9F896
:103150001040237A0BB9A621E2E7257AEDB2277257
:103160006B1E0B2B6AD8DFE803F066061C3463691C
:103170003D6969696958636813B94FF4D771CFE73E
:103180002046514698470420EFF3108272B6237A06
:10319000052BD9B25CD12672C9F81060B2B962B6FB
:1031A00014E0636813B940F2B711B9E751462046FD
:1031B00098470346ADF80400C0B2C3F30723012BC0
:1031C0003FD0022BE0D10023C9F810300028A1D055
:1031D00020E0636813B940F2BF11A1E72046984789
:1031E0000020D1E763680BB9B52199E70B220024D1
:1031F0008AF800200122198818698AF80220AAF8A2
:1032000003108AF805208AF8064008F0B7FB04206E
:10321000C9F8104002B0BDE8F087D8F80030514638
:1032200020469847034660B10220C9F81060F1E7D4
:103230004FF4FB7174E740F2F91171E74FF4FE713E
:103240006EE725720028E5D1002B7FF463AF6DE7B0
:1032500011B940F21D2163E700209FE7C400002060
:1032600038B5134C14220021201D0BF0EFFB012573
:10327000257404F108031422002104F11800C4E9A4
:1032800001330BF0E3FB84F8245004F11C03094ADA
:10329000C4E906330023E362236384F83430C4F8BE
:1032A0003530C4F8393084F83D30136038BD00BF84
:1032B0009C130020C000002010B5084C2378FF2B81
:1032C00004D04FF4A0711020FDF75CF907F076F9F7
:1032D0002070BDE81040FFF7C3BF00BF5D000020B5
:1032E00010B5034C207807F083F9FF23237010BD3D
:1032F0005D000020014B187807F08AB95D000020BE
:10330000014B024A1A607047C40000204930000097
:1033100010B506490446FFF7F5FE28B920460449D2
:10332000BDE81040FFF7EEBE10BD00BFB413002093
:10333000A0130020134610B5027A22B140F2992161
:103340001020FDF71FF90A4601460248BDE810406B
:1033500009F053BFA0130020044890F834301BB983
:1033600003492C3009F066BF704700BF9C13002052
:10337000EDD100000346064890F83E203AB190F89F
:103380003D2022B9034900F8353B09F053BF70478F
:103390009C130020393000000A4610B5037A23B18F
:1033A00040F2A1211020FDF7EDF801460723024865
:1033B000BDE8104009F021BFB41300201346027A83
:1033C0000AB1037270470A460146014809F015BF69
:1033D000A01300201B234FF01B12838403848261FF
:1033E0008382C260038539B94FF4A473034AC3844E
:1033F0004384C261C3820261704700BF4801480133
:1034000003460846F0B4B3F85420B3F84840B3F884
:1034100056109442B3F84460DF8F28BF1446B3F8C7
:103420004C20B3F842508A42DC8728BF0A46B3F8E2
:1034300046109142A3F8422038BF1146A64238BF39
:103440002646A742A3F84610A3F844601FD1AA1A43
:1034500018BF0122B3F84A50B3F85040B3F8527085
:10346000A5429E8FB3F8401028BF2546B3F84E40C2
:10347000BC429D8728BF3C46AE42A3F8404002D1E3
:10348000A14200D12AB10449F0BC09F0DCBE0122FE
:10349000E0E7F0BC704700BF4DD200000B8BA2F8F4
:1034A00009001046A2F80B304B8BA2F80D308B8B25
:1034B000A2F80F30CB8B0249A2F8113009F0BDBE43
:1034C0009DD20000094AD2E90003434083EAB011CB
:1034D00081EA43214FEAF34311605360044B5843A0
:1034E0004FEAF06000EB8000704700BFDC13002063
:1034F000BB79379E094AD2E90003434083EAB01101
:1035000081EA43214FEAF34311605360044B58436F
:103510004FEAF06000EB8000704700BF60000020C1
:10352000BB79379E10B50A4C08210948FDF770F9A0
:10353000D4E900321343F7D0064CFFF7DBFF2060DD
:10354000FFF7D8FF236860601843F6D010BD00BFB6
:1035500060000020DC130020174B184A9A60184ABC
:103560005A60184A1A60184A9A62184ADA62184A67
:10357000DA60184A9A61184A1A63184A1A62184A95
:10358000DA64184A9A64184A5A62184B184A9A60C0
:10359000184A5A62184ADA62184A1A61184A5A6175
:1035A000184A9A61184A1A63184A9A64184ADA64DF
:1035B000184A9A63704700BFC800002063D5000016
:1035C00093D50000FFD5000065D70000B9D70000F3
:1035D0003D390000CFD70000753B0000213A0000C4
:1035E0009DD80000B9D80000693A0000DC01002035
:1035F0007FD500006FD80000F1D7000095D70000FC
:1036000015D80000C13900003FD90000E7D80000FC
:10361000D9D8000055D80000044B054A5A65054B1F
:10362000054A1A65054A5A65704700BFC800002060
:10363000B3D60000DC01002099D6000011D70000AD
:10364000054B064A9A65064A1A66064B064A9A656B
:10365000064ADA65704700BFC80000201BCB000097
:1036600025250000DC01002065CA0000CDCB00004C
:10367000252A0346084610B518D8012A19D9023A56
:10368000232A16D8DFE802F01A1525242431153331
:10369000152439444815154C24245F5F757515159C
:1036A0001515151515151515157C878FFF2A00F0B2
:1036B00082804FF4A1615120FCF764FF1A785B68A7
:1036C000012A02D193F8103101E093F81931037106
:1036D00010BD5968D1F8BE214260D1F8C221826084
:1036E0005B68D3F80431C360F2E75B68EAE7014640
:1036F0001846BDE8104000F007BA102303715923A3
:103700004371002383712023C37130230372DFE7E9
:103710005B6893F80A31DAE7BDE8104000F0E4B9DD
:103720005A681B784BB992F8103133B192F80D31C9
:10373000037192F80C314371CAE792F80B310371AF
:1037400092F80A31F7E75B68B3F854200271120A65
:103750004271B3F812218271120AC271B3F850207B
:103760000272120A4272B3F8103183721B0AC372DA
:10377000AEE75B6893F82621027193F82731DAE708
:10378000114A1468002CA3D001461A462320234670
:10379000BDE8104018470C4A1468002C98D0014628
:1037A0001A462420F3E7084A1468002C90D00146FA
:1037B0001A462520EBE75B68BDE8104093F83722F6
:1037C000D3F8381209F0B8BCF00200203F2803D823
:1037D000064B53F82000704700F10C03DBB2042BBA
:1037E00001D8B438F4E70020704700BFC8000020BB
:1037F0003F2803D8064B53F82000704700F10C0314
:10380000DBB2042B01D8B438F4E70020704700BFC6
:10381000DC010020F7B5456804464FF6FF772E69B6
:103820000DF102010DF101023046ADF8027008F011
:103830005EF801A9304608F07CF840B1019808F024
:1038400040F9616800220272FFF7A6FDE8E704492B
:1038500005F1A00003B0BDE8F04009F0EEBC00BFE8
:10386000F1D40000F0B5044685B00D46FF2600F8FF
:10387000856C10F8863CF3B1184F3B781BB148219A
:103880001F20FCF77FFE0C21381DFCF7C1FF3E70A6
:10389000002304F8853C07232A4602F8033BD4F8AA
:1038A0000930C5F80330D4F80D305360D4F8113026
:1038B000936005B0F0BD01A80C21FCF7A9FFA4F5A9
:1038C0001373039AC3F8042101AB03CB44F88E0CA5
:1038D00044F88A1C04F8866CDAE700BFE413002081
:1038E00010B5054C23782BB90C21201DFCF790FF57
:1038F000FF23237010BD00BFE4130020024690F8A0
:10390000C631BBB990F8C73103F0FF010BB10020FD
:103910007047094B18780028F9D01970D96804331A
:10392000C2F8041103CBC2F8BE01C2F8C211FF23D2
:1039300082F8C63101207047E4130020426838B590
:1039400092F8873004460D463BB1132B05D0113B4E
:103950000B2B8CBF0120082038BD92F8C83013B95A
:10396000204609F082FD6268D5F80E30C2F8B63103
:10397000D5F81230C2F8BA316368D5F81620C3F80A
:1039800000211A88A3F855226A68C3F85722AA684A
:10399000C3F85B226368AA89A3F85F2263680025E5
:1039A00083F8C6516068054900F5137009F042FCC0
:1039B00063681522284683F88720CDE76538000024
:1039C00038B54368044693F887201C2A04D04FF486
:1039D000DE711F20FCF7D6FD002293F8C8101D8869
:1039E00003F5C97083F8C72069B10B4983F8C82073
:1039F000A3F89C5183F89B2109F01CFC636800220A
:103A000083F8872038BD012283F89B11A3F89C51CD
:103A1000024983F89E21EFE751D7000043D7000009
:103A200038B54568AB6F13F0010417D14A680C4BE9
:103A3000896813400B4AC5F8D830C3F307630A40BE
:103A400043F00803C5F8DC2085F8DB3009F00DFDF4
:103A5000AB6F204643F00103AB6738BD0120FCE7A4
:103A60002FC904F76FDB0080406808B590F88630F6
:103A7000042B24D14B688A68C0F8D830C3F307639D
:103A8000C0F8DC2043F0080380F8DB30002380F826
:103A9000C23080F8863090F8743103F0FF020BB129
:103AA000002008BD038800F5B670427243814B6860
:103AB000C3608B680349036109F0BCFBF0E7012098
:103AC000EFE700BF33D80000406890F8743143B985
:103AD000038800F5B670034943811A23437209F045
:103AE000A9BB704733D8000010B50446FEF7B8FCF8
:103AF000034A044B02400B406260A36010BD00BF4C
:103B00002FC904F76FDB008037B50C464568FEF718
:103B1000A7FC084B084A03400A4095F8D8100093C8
:103B20000B4001928DF800306B4603CB6060A160C2
:103B300003B030BD2FC904F76FDB008038B5DB045C
:103B4000154604D5037D13B10023436338BD446B90
:103B50000134446309F0D4FE836B9C42F6D3002306
:103B6000034943632846BDE8384009F06CBB00BFF9
:103B70008FD8000038B54468054694F88630012B8C
:103B800002D0A36F98073CD494F8C9309A0715D493
:103B90000A79D80784F8D320B1F80520A4F8D420F6
:103BA000B1F80720A4F8D62043F0020284F8C92017
:103BB0000FD5154904F1CA0009F045FB94F8C93046
:103BC000D90711D4A36F9A0708D555214020FCF7D7
:103BD000D9FC94F82A31002BEBD1EFE743F0020334
:103BE0002846A36709F041FC94F88630012B4FF07A
:103BF000000301D0002038BD84F8863084F8C2303C
:103C0000F8E70120F7E700BF21D9000070B545684B
:103C10000446FFF751F9054B014685F885001B68FE
:103C20001BB12046BDE87040184770BDF802002067
:103C3000024B1B6803B11847704700BFF402002015
:103C4000F0B51F4D00242B7814709BB1013B6D68BB
:103C5000DBB21E1B012E0FDC05EBC40655F83470D9
:103C600076688E4208BF874227D0B84271EB0606BD
:103C700012D214700020F0BD1E197710C6F347064B
:103C800055F837C005EBC70E8445DEF804708F4148
:103C90002CBF33463446DCE705EBC30455F83350FC
:103CA00064688C4208BF854206D0A84271EB0404C8
:103CB00028BF01331370DDE71C4601201470DAE7DA
:103CC0000414002010F0070208B503D06321482037
:103CD000FCF758FC18B1034B197258601A70C800F1
:103CE00008BD00BF04140020014B00221A70704769
:103CF000041400200A460648822302F8033B0368A6
:103D0000C1F803304368536083689360704700BF15
:103D10000D1400201622002101480AF097BE00BFB2
:103D20000D14002082B002AB03E903000D48437D6F
:103D3000B3B1530614D50A880C30B1F8803020F89E
:103D40000C2CD1F8182220F80A3C40F8082CD1F8A5
:103D50001C22054940F8042C022202B0FFF72EBBBA
:103D600002B070470D140020F53C0000094B53F8D9
:103D7000203003F5224370B5B13316464FF47A7202
:103D80000C46B3FBF2F5344403F0D8FA2C4420443B
:103D900070BD00BF945C03002DE9F04F8BB004466A
:103DA00098460F46039290F8699008F01AFE8246F2
:103DB00094F87300FFF760F8824409F0F8FD94F876
:103DC000873000F14D061FFA8AFA0293039B83BBEA
:103DD00094F8DC31032B2CD1029B0D2B29D1B4F8A4
:103DE0003C32BB4225D1D4F8E4312046B4F8B421AA
:103DF000C4F8D031A369C4F8D431B4F82A321344DA
:103E0000C4F8D83102F074F9D4E99023A262B4F86E
:103E10003E22A361A285D4F84822226241F64B5289
:103E200093428CBF0023012384F87230022384F86C
:103E3000DC31B4F8285204F5FC73B4F880E07D1B43
:103E40000493A7EB0E0E2DB20FFA8EFE002DBBBF12
:103E5000D4E9842375464246C4E9882394F8DC31CA
:103E6000B8BF0122032B00F26A81DFE813F00400DF
:103E7000F90053001B010121002008F0D3FF814607
:103E8000A06A5146484405F0CBFE5146C4F8E00113
:103E9000A06905F0C5FE07A9C4F8E40108A803F06D
:103EA0002FF9079B0093DDE90823D4E9880104F08A
:103EB0002AFF8346204609F092FDA26AD4F82C32EC
:103EC00094F86900D51803F041FAD4F8E01100F530
:103ED0002240203D4FF47A73B13032466D1A3031B2
:103EE000AD1BB0FBF3F04D44A38DA5EB0B0503EB2D
:103EF00041012D1A94F86900FFF738FFD4F82C32ED
:103F0000C4F8E801EB1ACC2B59D840F2FC41302020
:103F1000FCF738FBA36A5146D4F8D401184405F0E5
:103F20007FFE5146C4F8E001A06905F079FEC4F8AF
:103F3000E401204609F053FDA36AD4F8D4511D448E
:103F4000B4F8B431002B40F08780B8F1000F00F0D6
:103F5000838094F8690003F0F9F9D4F8E011D4F8FB
:103F6000183200F522406D1A94F86920B130203DD6
:103F70001D448D4B53F822204FF47A7302F2E7323E
:103F8000D4E9849AB2FBF3F2A5EB0905B0FBF3F098
:103F90001544AD1B2D1AD4F8D821D4F8D03194F89B
:103FA000690002FB0313A18D3246303301EB43015C
:103FB000FFF7DCFE0123C4F8E80184F8DC31A369D3
:103FC000D4F8E421A93B9B1A9E1B0023864284F867
:103FD000F831D4E9883228BF064604F130005B1975
:103FE000C4F8B06142F10002C4E9823209F0A2F9DA
:103FF0003044A4F82872C4F8FC01D4E98223C4E94F
:104000008823B4F8A031DB1B1BB2002BD4BF0022E5
:104010000122520084F80022029A0D2A00F09280B8
:10402000B8F1000F40F0918094F8DC31002B00F0E3
:10403000A880A16904F5FC70D4F8E431C91A08F02D
:104040008BFE80B2002800F09C80149B03B1188086
:1040500001200BB0BDE8F08FD4F8E0116D1A9AE79B
:10406000D4F8E421A369B4F8B4C19B1AD4F8D811E8
:10407000F444D4F8D0015D43D4F8E031ACEB010C4A
:1040800030330CF1FF3C00FB0133A18D94F8690043
:1040900002FB0C33324601EB4301FFF767FEC4F825
:1040A000E8018CE7D4F8E4A1A369A3EB0A035D431C
:1040B00094F88630252B03D094F88730252B09D12E
:1040C000B4F83C32FB1A1B0404D494F83F32002BA2
:1040D00018BF9946B4F8B4C142B3BCF1000F25D162
:1040E000D4E98623D4E98401904271EB030302D31F
:1040F0004FF4AA610BE794F869104FF47A7B2A4BCE
:10410000203A53F82130D4E98401CDE9040103F2C7
:10411000E73103F522430498B133121AB1FBFBF1E6
:10412000B3FBFBF30A44D21A921B15440CEB0E01AD
:10413000324648460AFB01F130314900ADE74FF401
:10414000AD61E4E6B8F1000F1BD0B4F8C80110B3BC
:10415000B4F8CA1194F8CC214D1CA4F8CA1101FB83
:10416000022290420DDD002B0BDD0023A4F8CA5182
:1041700084F80032FFF7A6F900F00700013084F858
:10418000CC0104F5FC7194F8F70104F05BFC20B954
:1041900040F2B151BBE60146DCE7039B83F001032B
:1041A00084F8F431002054E7945C03002DE9F341D6
:1041B000044618B9E2213020FCF7E4F9072900F29F
:1041C000BF80DFE801F00486474742BD33BA04F000
:1041D0002FFDC4E94001204600F0D2FFD4F8F400DE
:1041E000A43804F07BFD10B940F27B21E3E72046C0
:1041F00009F09BFF0546F8B90146204609F0BEFECE
:1042000000F1AE06D4F8F400B04209D2301A03210E
:10421000192838BF192004F07CFC051E18BF0125A1
:10422000C4F8F460204609F09AFF3DB1204602B080
:10423000BDE8F04109F094BF0025F3E7D4E940233D
:10424000C4E93A2302B0BDE8F08102B0BDE8F04114
:1042500002F062BF09F09DFE002307460E4684F877
:10426000F93004F049FB0722A7FB023502FB065593
:10427000D4F8EC200192D4F8E82013EB0208019B5B
:10428000D4F8CC2045EB030532B157EA060203D03F
:10429000404571EB050216D2022284F8F820D4F8CA
:1042A0000821D4F80C31121A63EB010C94F818E1D0
:1042B000BEF1000F09D1012A7CF1000E11DA20466F
:1042C00000F066FF05E00122E7E7012A7CF1000C1F
:1042D000F5DB94F8C80004F027FB002384F81031C4
:1042E000B0E7404571EB050E0FD23E430DD0B8EB61
:1042F000000365EB01019A427CEB010005DB012B19
:1043000071F10000A4BF1A468C460F49012394F8AE
:10431000C800914284F811314FF0000384F8F03066
:1043200073EB0C03B8BF0A4604F1F00104F0F6FC8D
:10433000002887D140F2EF613DE74FF480713AE702
:104340004FF4827137E700BF0040420F2DE9F04182
:1043500004460E46154690F8103103F0FF071BB1D6
:104360000C273846BDE8F0810146474804F0ECFAD6
:1043700020288046F4D05722394604F1C9000AF0BB
:1043800065FB84F8C880C4F8CC60FF2384F8103142
:1043900036B1FFF7AFF800F00700013086F8CC0126
:1043A00002234FF00008A4F8F83084F8F08005F0FC
:1043B0008DFC00F14906204609F0B7FE0146B6B271
:1043C000C8B308F00EFB00F5CD61284689B205F0B0
:1043D00027FC2844AE3DC4F8F40004F08DFA3018F0
:1043E000A4F8268041F10001C4E94001012084F8CD
:1043F000D00009F051FF2D1AC4F8D4504FF0FF350A
:104400006FF0004194F8C800D4E94023C4E9425158
:10441000002504F1F001C4E93823C4E93A2384F803
:10442000115142F2107204F079FC38BB40F2EB11EA
:104430003020FCF7A7F82046DFF8508009F09EFDF9
:10444000AE30C4F8F400B8F8000048B1E08C38B1E0
:10445000FFF750F8B8F80030B0FBF3F202FB13009E
:10446000064404F049FA361841F10001C4E94061FC
:10447000002DC3D0AD1941F10001C3E72946204604
:1044800009F070FE6DE700BFAD4100003014002060
:10449000F0B5002385B0CDE9003301238DF8063057
:1044A0006846FCF765FC70B11D4E01230027B37010
:1044B000CDE9027702A8FCF75BFC0546C8B10023F2
:1044C000B37005B0F0BD009809F0A4FBE8E790F8E0
:1044D000F70104F0E9FA94F8F70104F08FFB94F87F
:1044E000F70184F8DC5104F01FFA202384F8F73137
:1044F000DEE7029B002BDDD093F8F721202AD9D0EC
:1045000018884FF6FF739842D9D02946FCF7F6FB7E
:1045100004460028DBD140F237113020FCF732F896
:1045200030140020044B0022DA709A7042F21072AC
:104530001A80FFF7ADBF00BF30140020014BD870C8
:10454000704700BF3014002008B502F0E1FA044BB8
:104550005A6882422ABF9878002080F0010008BD86
:1045600030140020F7B5044606297AD8DFE801F0B8
:10457000042715252B3074003B4B9B7803F0FF027A
:104580005BB900920123B0F8A411FFF705FC38B124
:1045900040F21E713020FBF7F5FF042384F8DC3174
:1045A00002F0A0FC04F0ABF90023B4F88020A4F8DA
:1045B0002A32A4F8F22184F8F53103B0F0BD0323C8
:1045C00080F8DC31F9E709F0BDFFC4E98601F4E7C2
:1045D00090F8690009F0F3F97730D4F8E4319528C0
:1045E000A569214F8CBF0020C0F19600C2189542EA
:1045F00088BFED1AFB7894BF00252D1A1BB9236BD9
:104600009D4228BF1D46D4F8B06104F1300008F087
:1046100091FE0644022004F0E7FA0221AD1B25EAD0
:10462000E575854228BF0546284604F072FA00B9B0
:104630002E4401234FF480723146204608F0D7FE05
:10464000D4F8B0317860A069184404F047FB002822
:10465000B3D140F2A3319DE703B0BDE8F04009F0CB
:10466000BEB940F2ED7195E7301400202DE970439A
:104670000C4615466ABB0246174994F8C80004F078
:1046800085F920B940F2FD713020FBF77BFF02F085
:104690003FFA84F8D0500646D4E9408984F8105196
:1046A0000121D4F8CC0008F0FFFAD4F8CC00C0E91E
:1046B000848994F8C830C0F82C6280F8F731C0E9DA
:1046C000888909F07CFA02F00DFCBDE8704304F023
:1046D00016B940F61801D7E7F9D90000014B188048
:1046E000704700BF301400200346074A1068D3F813
:1046F0005120C0F80320B3F85520A0F8072093F804
:10470000501008F08ABC00BF3814002070B5044671
:104710000E461346407F6588324615F0040118BFE7
:1047200004F15F01FEF7CAFA4107054621D4C2072A
:104730000BD50123607F84F85030FEF723FB03681C
:10474000C4F851308388A4F85530AB0701D4012058
:1047500070BD094B01211868D4F85F3084F85E10F1
:10476000C0F80930B4F86330A0F80D3008F05EFCF2
:10477000EDE70020ECE700BF3814002038B5C38D0A
:1047800004460F4D0133C3F30E03C385AB7C2BB13D
:1047900002F080FC01F060FD0023AB7400232B715C
:1047A00094F871302BB101212046BDE8384009F062
:1047B000DCBA637C13B1E28D9A42F4D20021F3E7B4
:1047C0003814002010B5094C2379012B02D023792D
:1047D000022B05D1A37C1BB102F05CFC01F03CFD77
:1047E000E069BDE81040FFF7C9BF00BF38140020E2
:1047F00070B5294C2379012B07D02379022B04D0E3
:1048000040F65C412D20FBF7BDFEA0B90125A37C3D
:104810001BB102F03FFC01F01FFD002D3AD0E06912
:1048200009F01DFA002830D002F006FB236ABDE82B
:1048300070409B6818472168E26911F8095B02F132
:10484000510392F85020E80908F0D3F90028DDD090
:104850000021206808F00FFC0028D7D02379E069F8
:10486000012B05D02379022B02D040F63541C9E750
:10487000237905F00F01226A03F180435269013B5D
:1048800052F8233098470546C1E7E069BDE870401B
:10489000FFF774BF70BD00BF381400200346074AFD
:1048A000D06903B909B9FFF769BF1379126A03F137
:1048B00080431269033B52F8233018473814002014
:1048C00003292DE9F043054685B0174607D14388F3
:1048D000980723D40024204605B0BDE8F083428821
:1048E00090F87030D107DBB2F4D5002BF2D14FF045
:1048F0000108DFF8D49099F81260C6B108F0BDF94C
:104900000828387016D002AA0DF10701FEF7ACF99D
:1049100038B940F6D4612D20FBF734FE4FF0020881
:10492000E7E702A99DF8070009F037F806463B784B
:10493000082B08D1D9F8001011F8030BC0F3801030
:1049400009F02BF80646D9F8001005F1580395F840
:10495000572011F8030BC0F3801008F04AF9D9F87A
:104960000010044611F8030BC0F3801008F07BF927
:104970008146FEF719FA40B1B9F1080F1BD048463D
:10498000FEF79EF880F00103D8B23A78082A14D0D6
:104990001CB96C7FA21A544254416A8853079AD4B6
:1049A000002897D176B9EC7C444518BF002C0CBF89
:1049B000012400248FE70020E7E780F00102224075
:1049C000D4B2EAE7344686E7381400202DE9F04FE8
:1049D00085B00823052104460DF107028DF8073044
:1049E000FFF76EFF064620B90026304605B0BDE849
:1049F000F08F744F396807F11403FA7C11F8030B38
:104A0000C0F3801008F0F5F880460028ECD13B6830
:104A100040F2E249216A184691F88E2010F8035BB3
:104A200002EA55121D4602F0010281F88E20D3F8E9
:104A30000320C1F803208288A1F8072015F81F1B66
:104A4000226AC1F38011917002A9D3F81F0002906D
:104A500028790871D3F80F00D061587D1D7D0004BE
:104A600040EA0520DD7C28435062B3F8190082F843
:104A7000728009FB00F090619D7DC5EB451005EB50
:104A8000800505EB85056D009585B3F8170009FBDA
:104A900000F09062B3F81B001084B3F81D0050843E
:104AA00093F8243003F01F005B0982F89A0082F823
:104AB0007330256A94F912A005F18E0008F008FA07
:104AC00040F20113A5F868304FF0FF0B85F86AB08B
:104AD000414605F13000FEF77DFC51462846FEF7C1
:104AE000C1F9236A84F87B8004F186011A8884F86E
:104AF00099B0A4F87C204FF6FF729DF80700A4F847
:104B00009A209A69B2FBF9F2A4F892201A8CA4F8C0
:104B100094205A8CA4F8962093F8732084F8982057
:104B2000227F5AB394F85020012A27D194F85620B6
:104B300002F0C002402A21D1D4F85120C4F88620C6
:104B4000B4F855208A8008289A7803F1030504F107
:104B50008C0184F87F2004F18002D3F8033027D041
:104B6000C4F88C30AB888B8004F17F01FEF77CF8B1
:104B700040B940F6BB312D20FBF704FD0022C4F8FC
:104B80008620DFE794F87F3043F0020384F87F301B
:104B900004F172000C4908F04DFB0C4B0022206A16
:104BA0001B683A71002B3FF420AF214698471CE761
:104BB000C4F88030AB8893800023C4F88C308B809D
:104BC000E6E700BF3814002093DE00000003002059
:104BD000032973B5044604D0052956D0012002B03C
:104BE00070BD08230DF107028DF80730FFF768FE4E
:104BF0000028F3D0237C294D03B39DF8070094F8D7
:104C0000BE30DBB92378082804F1C10284F8BF3034
:104C10002CD004F1C001FEF727F820B940F64A7104
:104C20002D20FBF7AFFC94F8C03043F0020384F86A
:104C3000C0301B4904F1B60008F0FCFA2B680622CC
:104C4000042620465A701E70FFF74EFDE16B94F863
:104C50004020286808F000FA28682E7102F0A4F9B4
:104C60000021286809F078FC0020B8E7286803468E
:104C700013F8031BC1F3801184F8C010D0F803109F
:104C8000C4F8C1109B889380D3E7064B1B68002BA8
:104C9000EAD0984780F00100C0B2A0E738140020A5
:104CA0007BDE0000FC020020F8B504460F4619B375
:104CB00000F12805284609F0CCFAA0B963881A0744
:104CC0002ED5284609F0DAFA0646284609F0C1FA38
:104CD000301AC0B209F0E0FA494A93680344284602
:104CE000936009F095FA284609F097FA01F0F6FF6B
:104CF0002179252001F054FF414E002394F85E20D5
:104D00003068037043706388103B0D2B68D8DFE870
:104D100003F063675F0C67446767676767676744AB
:104D20002046BDE8F840FFF729BD06234370202345
:104D300003702046FFF7D8FC638823F008039BB27A
:104D4000152B05D094F83820616B306808F075F9A0
:104D5000306802F029F90021306809F0FDFB0323D7
:104D600021790020337101F0E3FF054607B9F060B7
:104D700063881B0704D509F08CFA0544C4F8D850A1
:104D80006388103B0D2B36D8DFE803F038352F2F22
:104D9000352F353535353535352F0C2321214370E9
:104DA000034603F8091B52B1D4F85F200121C0F873
:104DB0000920B4F863209A8008F038F9B9E7A26DA9
:104DC000C0F80920B4F85C209A8094F85710F3E7F3
:104DD000062303704370ACE7022303700623F9E750
:104DE00040F236612D20FBF7CDFB21790120BDE893
:104DF000F84002F069B940F6CF41F3E7F8BD00BFD3
:104E00003814002038B543880446102B04D1012102
:104E1000BDE83840FFF748BF0B4DAB7C23B101F034
:104E2000EFF9402002F02AF9286802F0BDF8608806
:104E300010F0040002D1217902F046F9002002F0BE
:104E4000FBF801232B7138BD38140020024B0121DF
:104E5000D869FFF729BF00BF3814002010B5134CE4
:104E6000A37C1BB102F016F901F0F6F9E06908F035
:104E7000F6FE70B12379012B10D12379226A03F158
:104E80008043E069D268013BBDE8104052F823300E
:104E90001847E069BDE81040FFF770BC2379022B8A
:104EA000EBD040F65E312D20FBF76CFB3814002070
:104EB000074810B5037903F0FF0433B918222146DF
:104EC000043009F0C3FD204610BD0C24FBE700BFF1
:104ED0003814002010B50023084C23712060FFF720
:104EE000E7FF20B140F2EF212D20FBF74BFB236AB7
:104EF00013B940F2F221F7E710BD00BF38140020CB
:104F0000014B024A1A62704738140020D451000045
:104F1000034B044A1A60044B044A1A60704700BFEE
:104F2000FC020020CD490000000300206D46000077
:104F3000F8B5057D0446AF1EFFB2002D3AD0012F13
:104F40002DD800F1580190F8570007F08CFE082882
:104F5000064624D0FDF7C0FD10BB023D18BF012559
:104F6000012F84F8505066778CBF002701272777E0
:104F7000FDF774FE054603F0BFFC0022164B84F8D3
:104F80005E20E5FB0301C4E9120111462046FFF74C
:104F9000BDFB70B940F27A412D20FBF7F3FA0826E9
:104FA000022D09D104F151010020FDF723FC80B945
:104FB0000020F8BD0826F5E7E37E002BF8D0D4F8F2
:104FC00015300125C4F85130B4F81930A4F8553023
:104FD000C6E70025C4E700BF40420F00F0B5464ECB
:104FE00085B00446327902F0FF0312B90278FF2A35
:104FF00004D140F6B9112D20FBF7C4FA3382B36017
:105000007371B37180F871303C4B684604F1280528
:1050100000933B4B01933B4B0293336A5B680393D2
:1050200001F0BAFF01F0EEFD02F034F801F014F9DE
:10503000354801F049FE354801F0A8FF284609F03F
:10504000E7F8284609F0E9F801F048FE2179252023
:1050500001F0A6FD94F9120001F030FE04F13401D4
:10506000206B06F030FE074604F13C01206B06F091
:1050700051FE0546E7B194F82430CBB1B4F92E5077
:10508000ED43ED0F237F13B963885B0709D56FF0FC
:105090000043D4E912129A4208BFB1F1FF3F0ED18A
:1050A000A5B930680330FDF7F7FDB07405B0F0BD69
:1050B000002DE7D094F82550002DDFD1E2E703F072
:1050C0001BFCD4E9122390429941E9D301222946DD
:1050D0002046FFF71BFB50B1FDF7C0FD054603F06E
:1050E0000BFC0B4BE5FB0301C4E91201D9E7002DD2
:1050F000D7D040F6F6117EE7381400205D4E000050
:10510000F14700009D480000D6BE898E55555500D8
:1051100040420F0073B50446FFF760FF00212046B0
:10512000FFF7C2FDA36E0BB101221A606388DB0793
:1051300020D50023104E256ACDE90033FF23F374F8
:105140006846FBF715FEA8B9009CA542F8D005F10A
:105150000A036A7A04F10A01607A07F04AFD00281E
:10516000EED0A378F374D4F80300044B7061B4F864
:1051700007209A8002B070BD381400204C14002023
:10518000024BD8611B6A1B68184700BF3814002007
:1051900043881B0710B504460ED5036A3C22084914
:1051A000723042721B884381FF2380F827304FF60C
:1051B000FF73038508F03EF8FF2384F8713010BDBB
:1051C00093DE0000E5DE0000054E0000EBDE00008F
:1051D000D14B000015510000C54700004D4E0000A6
:1051E000C4510000C8510000D0510000013802280D
:1051F00008B503D9C3212F20FBF7C4F913290A4BA3
:1052000005D811290CD8102907D0D121F3E7152989
:10521000FBD103EB4003D88801E033F8100008BD50
:1052200003EB40039889FAE7DE5B03000C4A034670
:10523000117889B9906833B9B0F85810828F9142CB
:105240000AD8FFF781B993891B0707D590F8880022
:10525000073818BF012070470020704701207047B1
:105260005C1400202D4AF8B50346948990681C43CD
:10527000402B948104D10421BDE8F840FFF772B9B6
:10528000802B01D10521F7E703F00304032C04D19F
:1052900040F6D6213120FBF775F913F0020418BF50
:1052A0001161DD0705D55161C97806290DD00B299B
:1052B00017D02CB11169C97805291DD00B2927D029
:1052C0009B0644BF08231370F8BD90F88710182977
:1052D000EFD1002600270121C0E9386780F88B1044
:1052E000E7E790F88710122901BF002180F88B10A2
:1052F000012180F8C810DCE790F887101629DFD16B
:10530000002400250121C0E93A4580F88C10D7E738
:1053100090F887101129D3D10021F6E75C14002002
:1053200073B5044640680D46836F13F0300F47D1C4
:1053300009891A2903D96B89B3F5A47F06D2E978C4
:10534000204602B0BDE8704008F0C1B8AA881A2A09
:10535000F5D9EE88B6F5A47FF1D33030009607F08A
:10536000FBFF184B9A8992070ED51B69DB78142B2B
:105370000AD16268936F43F010039367204608F0E8
:1053800074F8002002B070BD636893F886201D2A6F
:10539000EFD093F81B31002BEBD1636893F81A31EF
:1053A000002BE6D16268936F114602F59F7243F0BD
:1053B000200331F8300B42F8C63CFEF76FF8DDE70A
:1053C0000120DFE75C14002037B5044601A8FDF793
:1053D0009BF920B940F6BB013120FBF7D3F822221C
:1053E0000021019809F032FB019D0321284607F0B6
:1053F0008FFE2B78214623F010032B700198FDF7C8
:105400009FFD224601990548FEF732F9FDF790F914
:1054100010B940F6C501DFE703B030BD60140020CD
:10542000264B70B59C6894F83E5294F83F62002D6C
:105430003DD194F86810002E3BD194F8693084F87F
:10544000681084F86930FF2384F86A301C4B1B68AD
:105450000BB12046984794F82431012B01D03543F5
:1054600003D000211748FDF723F804F13006304639
:1054700007F060FF04F2351105462046FDF7C0FF36
:1054800020460621FFF76EF8304607F053FF8542AD
:10549000044610D203F09EFB0146601B192838BF5A
:1054A000192003F036FBB0FA80F0400970BD2946A0
:1054B000C1E73346C3E70120F8E700BF5C140020D2
:1054C0001003002060140020154B1B6910B51979DA
:1054D000436893F88620092A09D193F809218A4262
:1054E00005D1002283F8862083F8C22010BD9A6F70
:1054F00012F0080406D022F00802BDE810409A67B6
:1055000007F0BDBFFF2905D1332283F8344283F869
:105510008620EBE740F25C513120FBF733F800BF07
:105520005C140020F8B50D790446A5F10E03DBB23A
:10553000152B0DD8012640F2512206FA03F7174227
:1055400008D14268152B92F8862028D0082B08D065
:105550000020F8BD024631462846BDE8F84008F074
:105560009FBE212A01D02E2AF2D1204607F074FFD7
:10557000636893F88720222AEAD093F8D9201A2169
:10558000204622F0010283F8D920626892F8D930CF
:1055900023F0080382F8D930FCF78AFFD8E7282ADD
:1055A000D6D1034B1B68002BD2D09847D0E700BF61
:1055B0000C0300202DE9F041A0F10E040029134650
:1055C000E4B208BF1F21172C0AD8012640F2512748
:1055D000A6403E4207D116F4600F23D1082C07D015
:1055E0000020BDE8F0810021BDE8F04108F058BE80
:1055F000546894F88620212A08D11846FCF758FFF1
:10560000002384F8863084F8C230E9E72E2AE7D1F7
:1056100094F88720A2F120010629F1D92E2AEFD093
:105620002A21EAE7054A1468002CD9D00A46014627
:1056300018462346BDE8F041184700BF0803002084
:105640002DE9F7437F4D0646AC68002840F0A48062
:10565000AB891A0724D594F80E31FE2B04D140F201
:10566000DF513120FAF78EFFFE2384F80E3194F8D3
:1056700087301A2B06D184F8C700281D07F0FFFEDB
:1056800084F8876094F88630202B33D0332B3FD0BA
:1056900094F88830072B02BF02232B7684F80E3152
:1056A000AB89DB073DD4AB895F0700F1AB8099077D
:1056B00040F1B280AB68012283F80F212B69DF78BB
:1056C0000D2F00F0A680112F00F0B180072F00F001
:1056D000B0803846FEF78CF80346002840F09A80E8
:1056E000FF2F40F0A880AA68332182F8340282F8A4
:1056F000861091E094F88730A3F12002062A05D99C
:105700002E2B03D0212384F88630C1E72E23FAE71D
:10571000012384F83532002384F8863084F8C230BF
:10572000B6E7D5F80890D5F8148099F88730113B82
:105730000B2B0BD898F80330023BDBB2092B7DD83A
:1057400040F2333222FA03F3D80777D54046FDF70B
:10575000DDFB98F8037020B939463B4807F0B7FEE7
:1057600049E0012F01D9162F30D199F8860007F0B2
:105770009BFE40B199F88630202B04D0212B07D115
:105780002E2389F886303846FEF720F803462AE0B3
:10579000162F14BF022620262B781B0712D594F84B
:1057A0008730113B0B2B4BD9002501A90320019514
:1057B000FBF764FF019B2BB11D720C22214601985F
:1057C000FDF7B8FD304603B0BDE8F083112F0ED0D1
:1057D00005D8072F14D00D2FD5D11C4B08E0142F5E
:1057E000D1D11B4B1B681BB998F80310B5E7194BB7
:1057F00069691548984700283FF455AF0646CBE73E
:10580000154BF5E794F88820062A04BF01222A7672
:105810004DE7124B0C489847AB89DA06BCD594F893
:1058200087300A2BB8D10B2384F88730B4E70C4BB0
:10583000F0E70C4BEEE740F2D25112E70826ABE757
:105840000820C0E75C14002060140020DFE30000A3
:105850000403002027E40000255500006FE300004A
:105860008DE30000C95400002DE9F74FB64F0E46F6
:105870008046B989BC688D0504F1780A54BFB4F834
:10588000B8200023504653BF0132A4F8B83084F842
:10589000AF31A4F8B82008F091FD30B10B4604F503
:1058A000967221465046FEF749F9BB8903F4C0635E
:1058B0002BB194F88A30002B47D0032B4CD094F8AE
:1058C0008A20BB89012A04D1180544BF022284F82A
:1058D0008A20B8F1000F40F09580590657BFB4F800
:1058E000C8214246013292B2A4F8C82103F00A024C
:1058F0000A2A0DD13A69D278022A09D123F0080385
:105900003046BB81FFF79CFE30430823C6B2BB8103
:105910003046FFF795FEBD68304395F80E31C6B2AC
:10592000FE2B3CD1DEBB95F88830063B012B36D9E7
:1059300095F81831ABB195F8193101220221A5F87B
:10594000BC6085F8103128462BE1012184F88A10CB
:105950002046FEF707FEB2E70223012184F88A30D1
:10596000F6E795F88790A9F110095FFA89F9B9F17E
:105970000C0F40F2ED80AB6FDA0702D532460921F9
:10598000E1E7980740F1938032460C21284608F061
:10599000D5FC95F8C93043F0010385F8C930B4F857
:1059A000A83194F8AC510133A4F8A831002D00F0CF
:1059B000FD81FBF755FE10B10023A4F8A83194F83F
:1059C0008A10012940F2278294F88830072B40F092
:1059D0000582B4F8B830022B40F21D82B4F8BA50F8
:1059E0000135ADB2B4F880302B44A4F8A03194F85E
:1059F000AD31002B00F013820123B4F88020134452
:105A0000A4F8A431BB89BD685B0657BFB5F8B431B3
:105A10000023B5F8A6219B1858BF9BB2A5F8B43156
:105A200095F8183123B995F88830063B012B06D834
:105A3000B5F8BC30B5F8A6211344A5F8BC3095F8EC
:105A4000C21031B1B5F8BE30B5F8A6211344A5F89F
:105A5000BE3095F9C620002AC1BFB5F8C430B5F8EC
:105A6000A6011B18A5F8C43095F8A93063B9B8F1A0
:105A7000000F40F065823B7E022B40F0178295F8C4
:105A80001031062B18BF162395F8A82022B92F48ED
:105A900085F8A930FDF7BEFE284608F0FDFC00237E
:105AA00084F8AB3103B0BDE8F04FFCF767BE59078F
:105AB00002D53246132146E71A0706D595F8083174
:105AC000324685F8103107213DE713F0300F35D00D
:105AD00095F81B31002B4AD195F81A31CBB195F8C6
:105AE000873005F58D7105F23E22252B24D095F8DF
:105AF0008630A3F1250043424341284607F01EFCAF
:105B0000AB6F23F0200343F01003AB67002385F84D
:105B10001A31AB6FDA062AD505F235112846FDF7A2
:105B20006FFCB5F8523000221521A5F81031B5F8F8
:105B30005630A5F8123106E70123DEE75B0616D5DD
:105B400000222421FFE600BF5C1400206014002026
:105B5000D7F808B09BF88730113B0B2B0ED8DFE845
:105B600003F01D0D0D0D232C0D0D0D0D0D55B868F9
:105B700090F88730222B4FD0312B4AD095F88630C1
:105B8000002B59D195F88730103B0C2B5CD995F838
:105B9000B630002B58D001221221D4E600220B216E
:105BA000584608F0CBFBFAE65846FDF7A7FE00285A
:105BB0003FF4F5AE00220421F2E79BF83032012BCE
:105BC00008D100220521584608F0B8FB00238BF8C5
:105BD0003032E4E69BF83032022BD9B27FF4DFAEEC
:105BE0009BF8C85025B1062300228BF81031EAE754
:105BF00003210622B34807F051FC9BF8D8302A460F
:105C000013F0040F0CBF0D211121DCE70022062147
:105C1000C6E700221121C4E790F82431022B02D1FB
:105C200000221721BDE790F82431012BA6D190F86E
:105C30002531002BF4D0A1E7092B05D195F80931C6
:105C4000012285F810313EE7B9F10C0F7FF6A7AEBF
:105C5000D7F8089099F886B0BBF1000F40F08C801F
:105C600099F82B313BB101220E21484608F066FB22
:105C700089F82BB1ADE799F82A3193B199F8C9B0F9
:105C80001BF003030DD14BF0010B01220C21484600
:105C9000019308F053FB89F8C9B0019B89F82A31B8
:105CA00097E799F81A3133B399F81B311BBB99F870
